:100000002BC045C065C5ACC042C041C040C03FC068
:100010003EC001C15EC4D0C43AC039C038C0ACC60D
:10002000B6C6C2C6D3C6D2C6D1C6D0C6E9C6F9C600
:1000300000C70FC719C72AC72DC7A5C72FC7A3C792
:1000400049C7A1C7A0C79FC79EC79DC76CC76BC73D
:100050009AC799C731C730C711241FBECFE5D2E078
:10006000DEBFCDBF10E0A0E6B0E0E2E1F2E102C009
:1000700005900D92A63AB107D9F721E0A6EAB0E0C3
:1000800001C01D92A731B207E1F7D2D7C0C8B8CFDF
:100090006FB5862F90E0A0E0B0E0BC01CD016C5CB4
:1000A0007F4F8F4F9F4F28E630E040E050E009D867
:1000B0006EBD89B7806489BF81E08093BE00AB9834
:1000C000089589B78F7B89BFAB9A1092BE000895BF
:1000D0002091D2009091D10081E0291301C080E0ED
:1000E0000895AEEBB0E05496EC915497F0E0E254F2
:1000F000FF4F838154962C91549730E02F5F3F4FF0
:100100002F70332754962C9308952091E60030E009
:100110002F5F3F4F2F703327422F9091E7004917F1
:10012000E1F3E091E600F0E0E254FF4F808F20938E
:10013000E600089589B7806289BF0895EEEBF0E08C
:100140001082138A148A158A10A611A6BADFC49ADF
:10015000F1DF0895882311F0C49A0895C498089592
:100160001F920F920FB60F9211242F933F934F932C
:100170005F936F937F938F939F93AF93BF93EF930F
:10018000FF938091BE008823A9F18091BE008F5F0C
:100190008093BE008091BE008B3028F4833050F4F1
:1001A000823021F027C08D3090F024C0B39B22C054
:1001B00088DF20C08091BF0086958093BF00B39BED
:1001C00019C08091BF0080688093BF0013C0B39BAB
:1001D000EFCFE091D100F0E08091BF00E254FF4FFB
:1001E00083838091D10090E001968F70992780934E
:1001F000D100DECFFF91EF91BF91AF919F918F9191
:100200007F916F915F914F913F912F910F900FBE12
:100210000F901F9018951F920F920FB60F921124F6
:100220002F933F934F935F936F937F938F939F93FE
:10023000AF93BF93EF93FF938091D30081111AC0C6
:100240009091E7008091E600981799F1E091E7001E
:10025000F0E0E254FF4F808D8093D40081E08093E2
:10026000D3008091E70090E001968F7099278093EA
:10027000E7001FC08091D3008F5F8093D3008091EF
:10028000D3008B3038F4833058F4823091F480E01E
:1002900061DF0FC08D3068F4C49A1092D30009C09A
:1002A0008091D400817056DF8091D4008695809330
:1002B000D40080911601882329F080911601815085
:1002C00080931601809115018F5F809315018091B5
:1002D00015018036E1F410921501809114018F5FB1
:1002E000809314019091140180911301981303C01D
:1002F00088EC8093130180911401843641F490912D
:10030000120181E089278093120110921401FF915C
:10031000EF91BF91AF919F918F917F916F915F917D
:100320004F913F912F910F900FBE0F901F901895F6
:1003300086E0AFD2089584E0ACD2089582E0A9D2DD
:10034000089583E0A6D2089580E1A3D20895F2D360
:100350001092AC0081E08093AE000895AF92BF92FE
:10036000CF92DF92FF920F931F93CF93DF9300D032
:10037000CDB7DEB7062F89839A83E0DF8981F82E17
:10038000A82E9A81B92E10E08A2D8F19801748F473
:100390006501F50181915F017CD2F601808118270A
:1003A000F3CFCFDF83E0812774D20F900F90DF91DE
:1003B000CF911F910F91FF90DF90CF90BF90AF90A2
:1003C00008958091A700813051F018F08230B1F08B
:1003D00023C001D2AFD381E08093A7001DC02BD2F0
:1003E0008823D1F031D28630B9F4A4D382E080934F
:1003F000A70061E083EA90E0B1DF0EC01CD2882341
:1004000059F022D2863041F495D31092A70081E0B2
:100410008093AE00E2D18FDF95D3882339F08AD361
:100420001092A70081E08093AE00D7D1089580910B
:10043000A6008130B9F120F0823009F442C008955D
:10044000809176002AE0622F09D6805D8093640057
:10045000905D909365008091790000D6805D8093D7
:100460006600905D9093670080917C0090917D0084
:1004700064E670E0FFD5482F862F622FEFD530E37A
:10048000380F30936800905D90936900842FE6D513
:10049000805D80936A00905D90936B009CD14AD3FD
:1004A00081E00CC0C8D1882379F0CED18630E9F440
:1004B00041D369E083E690E051DF82E08093A600BB
:1004C0000895B9D181110BC03DD3882371F085D136
:1004D00031D31092A60081E08093AE000895B4D18C
:1004E0008630A9F77AD127DFF2CF0895AF92BF9275
:1004F000CF92DF92FF920F931F93CF93DF9300D0A1
:10050000CDB7DEB7062F89839A831EDF17DF898177
:10051000F82EA82E9A81B92E10E08A2D8F198017F7
:1005200048F46501F50181915F01B3D1F601808145
:100530001827F3CF09DF05DF83E18127AAD10F90C8
:100540000F90DF91CF911F910F91FF90DF90CF908F
:10055000BF90AF90089566E083E890E0C7DF08950C
:1005600066E089E890E0C2DF089580E28093610050
:1005700063E080E690E0BADF0895E0E6F0E082E232
:10058000818380917800828363E0CF01AFDF08959B
:10059000F4DF0895F2DF089563E080E890E0A6DFDD
:1005A000089563E080E890E0A1DF089586E28093FB
:1005B000610063E080E690E099DF089587E2809330
:1005C000610063E080E690E091DF089584E280932B
:1005D000610063E080E690E089DF089585E2809322
:1005E000610063E080E690E081DF0895CF932CD135
:1005F0009091AC00923069F128F4992351F0913038
:1006000099F09DC0933009F496C0943009F486C0E7
:1006100096C0823009F093C081E08093AC001092C4
:10062000AB001092AA0013C09091AB009827909352
:10063000AB00833021F482E08093AC0008C08F705F
:100640009091AA009295907F892B8093AA0072D2F4
:1006500077C09091AB00981372C083E08093AC0098
:1006600069D2C091AA00C63609F44AC0E0F4C03687
:10067000C1F140F4C13089F158F1C23009F05FC0D6
:100680006FDF5EC0C33699F130F4C23609F057C04F
:100690006CDFBBD255C0C43669F1C53609F04FC016
:1006A00085DF31D34DC0CB3669F148F4C83641F10E
:1006B00020F1CA3609F043C06FDF9ED22DC0CD367F
:1006C00031F118F1CE3629F1CF36C9F581E022C0DB
:1006D0002FDE84E08093AC0033C03DDFC093AD00DB
:1006E0002FC081E08093780048DF93D229C06EDF6D
:1006F0009ED226C073DFC1D223C060DF13D320C0D7
:100700003CDF0AC04EDF6FD207C085E003C089E03E
:1007100001C08DE08093780030DF12C0843079F41E
:1007200009D28091AA0081110BC01092AC0083E025
:100730008093AE0005C0863011F4FCD1FCDD07DEED
:10074000CF9108958091AE00813009F130F0823070
:1007500009F43FC08330D9F108956DD0882331F07A
:100760003CD0E8D181E08093AE000895EBD188239E
:1007700089F19091A80081E089278093A8008823BF
:1007800019F02BD0DBD1089526D0D4D1089553D0C1
:10079000882311F02BDF0895D5D1882311F0D7DD00
:1007A00008958091AD008823A9F08091AC0081115B
:1007B00011C0809112019091A900981759F082E020
:1007C0008093AE00809112018093A9000895F9DD15
:1007D00008952DDE0895C29A0895C298089562B7CB
:1007E000862F90E0A0E0B0E0BC01CD016C5C7F4FB3
:1007F0008F4F9F4F28E630E040E050E062D468BD64
:1008000089B7886089BF81E08093E800A89808953F
:1008100089B7877F89BFA89A1092E8000895E8EE0B
:10082000F0E01082138A148A158A10A611A6F0DF50
:10083000C198D3DF08952091FC009091FB0081E0E6
:10084000291301C080E00895A8EEB0E05496EC9121
:100850005497F0E0E851FF4F838154962C915497C0
:1008600030E02F5F3F4F2F70332754962C9308951D
:10087000982F92959F708927982F969596958927FE
:10088000982F969589278170089589B7806189BFCF
:1008900008952091100130E02F5F3F4F2F703327D4
:1008A000422F909111014917E1F3E0911001F0E01E
:1008B000E851FF4F808F20931001E7DF089589B73B
:1008C0008F7E89BF0895882311F0C1980895C19A39
:1008D00008951F920F920FB60F9211242F933F93FA
:1008E0004F935F936F937F938F939F93AF93BF9338
:1008F000EF93FF938091FD00811121C09091110130
:1009000080911001981709F446C0E0911101F0E0C0
:10091000E851FF4F808D8093FE0081E08093FD00C1
:100920008091110190E001968F70992780931101B9
:100930008091FE009DDF8093FF00FCD02CC0809151
:10094000FD008F5F8093FD008091FD008B3030F4BF
:10095000833048F48230F9F480E011C08B3069F0C4
:100960008C3079F018C08091FE008170ACDF8091EE
:10097000FE0086958093FE000EC08091FF00A3DFED
:100980000AC0C1989091110180911001981301C083
:1009900096DF1092FD00FF91EF91BF91AF919F9173
:1009A0008F917F916F915F914F913F912F910F9018
:1009B0000FBE0F901F9018951F920F920FB60F92B7
:1009C00011242F933F934F935F936F937F938F9354
:1009D0009F93AF93BF93EF93FF938091E800882399
:1009E00009F43FC08091E8008F5F8093E800809118
:1009F000E8008B3028F4833060F4823031F031C06D
:100A00008B30A1F08C30D1F02CC0B09B2AC000DF1D
:100A100028C08091E90086958093E900B09B21C0B1
:100A20008091E90080688093E9001BC08091E90013
:100A30001FDF96B391708913EACF13C0B09BE7CF45
:100A4000E091FB00F0E08091E900E851FF4F8383E3
:100A50008091FB0090E001968F7099278093FB00B6
:100A6000D6CFFF91EF91BF91AF919F918F917F91E1
:100A70006F915F914F913F912F910F900FBE0F900B
:100A80001F90189580E886BD16BC87B3866187BB2A
:100A9000C49A89E085BB80E28ABF8BBF8AB5826039
:100AA0008ABD82E083BF88E689BD94E890BF1BBC05
:100AB0008DBD44DBB4DE78940895F894A89584B78E
:100AC000877F84BF88E181BD89ED81BD78940895D9
:100AD0001F920F920FB60F9211242F933F934F93B3
:100AE0005F936F937F938F939F93AF93BF93EF9396
:100AF000FF93A89B06C08091E800811102C0B09BC3
:100B00006EDEAB9B06C08091BE00811102C0B39B1C
:100B1000BFDAFF91EF91BF91AF919F918F917F913C
:100B20006F915F914F913F912F910F900FBE0F905A
:100B30001F9018958AE68093160108958FE08093A0
:100B4000160108959091160181E0911180E00895B9
:100B5000E6E7F0E0648170E0868197818BD26F5F79
:100B6000638308951092BC001092BB001092BA00EB
:100B70001092B3000895A2E0B0E0E0ECF5E0C5C249
:100B80007C018EE7C2DA8FEFC0DA8FEF90E09A83B4
:100B900089838701670185E0C80ED11C5801F801DF
:100BA00081918F01B2DAF501808129813A81280F84
:100BB000311D3A8329830C151D0581F73195219547
:100BC00031093A8329838A81A0DA89819EDA8FEEFE
:100BD0009CDAF701818181118093BD002296EAE0C1
:100BE000B0C216D2089581E08093760080937000A1
:100BF0008CE690E0C0DF089582E0809376008093D9
:100C000070008CE690E0B7DF08958EE990E0B3DFE6
:100C10000895E1E7F0E0A6E7B0E017968C9117970A
:100C2000838316968C918483CF01A5DF08958091EC
:100C30007C0090917D0020917800253089F018F497
:100C4000213029F40DC0293059F02D3011F00197D1
:100C500007C020917E0020FD02C0CE9601C0CD9637
:100C600060917E0070917F0005D2019690937D0087
:100C700080937C006DDFCDDF089580917C009091A2
:100C80007D0020917800253051F018F4213029F4AE
:100C900006C0293021F02D3021F001970AC00297BB
:100CA00008C020917E0020FD03C08054910901C03E
:100CB000CF9760917E0070917F00DCD10196909378
:100CC0007D0080937C0044DFA4DF0895809179004B
:100CD00090E060917A0070E00197AFD10196909317
:100CE0007D0080937C0020917E0030917F0028174A
:100CF000390740F481E090E090937D0080937C0080
:100D0000809379000895809179008F5F80937900B6
:100D100090917B00981718F481E080937900D6DFDA
:100D200078DF0895809179008150809379009091C7
:100D30007B00882311F0981710F490937900C6DF98
:100D400068DF089589E990E016DF08958FE890E064
:100D500012DF0895CF93BCD9882309F416C1C1D9F5
:100D60009091BC00492F50E04A30510508F00BC16A
:100D7000FA01E15FFF4F09948E3709F047C181E026
:100D80008093BC001092BB001092BA003FC18F3F0D
:100D900009F0F9C082E08093BC008091BA00909184
:100DA000BB0081509F4F27C0863009F0ECC083E024
:100DB0008093BC008091BA009091BB0006969093FE
:100DC000BB008093BA001092B30020C19F5F909344
:100DD000BC009091B300E92FF0E0EC54FF4F80830A
:100DE0009F5F9093B3002091BA003091BB00A9019E
:100DF000480F511DCA019093BB008093BA0006C1F1
:100E00002091BA003091BB00319521953109309382
:100E1000BB002093BA009091BB008913B4C088E056
:100E200005C09091BA008913AEC089E08093BC00E0
:100E3000EDC08F3E09F0A7C0E091B4008E2F90E086
:100E4000FC01FA97E331F10508F09DC0E75EFF4F22
:100E500009948091B7008093760090917700892B58
:100E600080937700D5D081C08091B7008095909114
:100E7000770089238093770090917600892309F089
:100E800082C081E080937600C3D07DC081E08093F2
:100E9000760038C082E08093760033C08091B7003E
:100EA000882309F470C080937700C1E0C093760076
:100EB000AFD0C093B0005CC08091B600882349F1E8
:100EC0009091B700992329F190937C0080937D0045
:100ED0003FDE49C08091BD008D30D9F028F48150AB
:100EE000833008F050C015C08F3399F0823409F078
:100EF0004AC08091B600809376008091B70081113E
:100F000042C081E08093B1008091140190E00A9684
:100F100007C081E08093B2008091140190E0449674
:100F200064E670E02CC08091B6008823F1F09091C7
:100F3000B7009923D1F090937E0080937F00809139
:100F40007E0090917F00813356E0950710F020E2FB
:100F500001C020E120937A0060917A0070E08AD08D
:100F60006F5F60937B005CD00EC081E08093B00027
:100F70008091140190E0805B9F4F68EC70E08ED010
:100F80008F5F80931301EEDD41C080911301883C97
:100F9000E9F58091AF00882321F01092AF0023DEA5
:100FA00019C08091B000882331F01092B00084E91C
:100FB00090E0E1DD0FC08091B200882321F0109213
:100FC000B200C4DE07C08091B100882319F01092EE
:100FD000B1002DDE8091AF0081110CC08091B00076
:100FE000811108C08091B200811104C08091B100CC
:100FF000882349F08091140190E00A9664E670E03D
:101000004DD08F5F01C089EC80931301CF9108957B
:101010004AE050E060E070E086E790E0C7D00895D5
:101020004AE050E060E070E086E790E0CFD00895BD
:1010300029DDD7DD8FDE86DBFDCF0024552704C0F8
:10104000080E591F880F991F009729F0769567950C
:10105000B8F37105B9F7802D952F0895991B79E0A4
:1010600004C0991F961708F0961B881F7A95C9F738
:1010700080950895AA1BBB1B51E107C0AA1FBB1F87
:10108000A617B70710F0A61BB70B881F991F5A9514
:10109000A9F780959095BC01CD01089597FB072E87
:1010A00016F4009406D077FD08D0E4DF07FC05D0E5
:1010B0003EF4909581959F4F0895709561957F4F6F
:1010C0000895052E97FB16F400940FD057FD05D018
:1010D0004BD007FC02D046F408C05095409530959F
:1010E00021953F4F4F4F5F4F089590958095709594
:1010F00061957F4F8F4F9F4F08952F923F924F9250
:101100005F926F927F928F929F92AF92BF92CF9297
:10111000DF92EF92FF920F931F93CF93DF93CDB7A0
:10112000DEB7CA1BDB0B0FB6F894DEBF0FBECDBF18
:1011300009942A88398848885F846E847D848C84E9
:101140009B84AA84B984C884DF80EE80FD800C81F2
:101150001B81AA81B981CE0FD11D0FB6F894DEBFD5
:101160000FBECDBFED010895A1E21A2EAA1BBB1B35
:10117000FD010DC0AA1FBB1FEE1FFF1FA217B30763
:10118000E407F50720F0A21BB30BE40BF50B661F79
:10119000771F881F991F1A9469F76095709580953D
:1011A00090959B01AC01BD01CF010895DC01CB01FD
:1011B000FC01E199FECF06C0FFBBEEBBE09A319681
:1011C0000DB20D9241505040B8F70895DC01A40FC4
:1011D000B51F4150504040F0CB01840F951F2E9118
:1011E00005D041505040D8F70895262FE199FECF01
:1011F0009FBB8EBBE09A01970DB2021639F01CBA64
:101200002DBB0FB6F894E29AE19A0FBE0895F894B8
:02121000FFCF0E
:10121200332201353031303130303030063F00007A
:101222000106030100000101010310632100B70B55
:10123200332A00313F8020010031000020000006E7
:101242004B00000006470000000642000000060EA8
:0612520001000030000065
:00000001FF
