:100000000EC028C00CC81EC425C024C023C022C0F6
:1000100021C072C4CDC23DC31DC01CC01BC0112471
:100020001FBECFE5D2E0DEBFCDBF10E0A0E6B0E05E
:10003000EEEBF2E102C005900D92A23DB107D9F7B7
:1000400021E0A2EDB0E001C01D92A438B207E1F7B3
:1000500018D806C9D5CF86E08BD2089584E088D21F
:10006000089582E085D2089583E082D2089580E1E8
:100070007FD20895A0D71092D80081E08093DA0053
:100080000895FF920F931F93CF93DF93F82E192FAC
:10009000062FE7DFCF2DD12F0C0F1D2F111DF12CB7
:1000A000C017D10741F4E0DF83E08F2561D2CDB7DF
:1000B000DEB7E5E074C889915BD2FE01319780819B
:1000C000F826EECF8091D3008130A1F0823009F183
:1000D000811105C0E1D16FD781E08093D30073D740
:1000E000882339F068D71092D30081E08093DA003A
:1000F000D5D108950FD2882391F315D2863079F7A0
:100100005AD782E08093D30061E080ED90E0B9DFC0
:10011000E6CF00D2882319F306D2863001F74BD7F9
:100120001092D30081E08093DA00B8D197DFD7CF67
:100130008091D2008130C1F1823009F44DC081112B
:1001400054C0809176002AE0622FB1D7805D809301
:100150006400905D9093650080917900A8D7805DE0
:1001600080936600905D9093670080917C009091F1
:100170007D0064E670E0A7D7382F862F622F97D7CF
:10018000805D80936800905D90936900832F8FD786
:10019000805D80936A00905D90936B007DD10BD75A
:1001A00081E08093D2000895B5D1882351F0BBD16E
:1001B0008630D9F400D769E083E690E062DF82E020
:1001C000F0CF01D7882389F069D1F5D61092D200FB
:1001D00081E08093DA0008959DD1882391F3A3D123
:1001E000863091F75BD13ADFEFCF0895FF920F93FE
:1001F0001F93CF93DF93F82E192F062F38DF31DFAF
:10020000CF2DD12F0C0F1D2F111DF12CC017D10791
:1002100049F42DDF29DF83E18F25AAD1CDB7DEB7E1
:10022000E5E0BDC78991A4D1FE0131978081F82610
:10023000EDCF66E083E890E0D9DF089566E089E8D5
:1002400090E0D4DF089580E28093610063E080E66F
:1002500090E0CCDF0895E0E6F0E082E281838091D7
:100260007800828363E0CF01C1DF0895F4DF089551
:10027000F2DF089563E080E890E0B8DF0895FADFE8
:10028000089586E28093610063E080E690E0AEDF4F
:10029000089587E28093610063E080E690E0A6DF46
:1002A000089584E28093610063E080E690E09EDF41
:1002B000089585E28093610063E080E690E096DF38
:1002C0000895CF9330D19091D800923059F170F4C5
:1002D000911114C0823081F481E08093D800109293
:1002E000D7001092D60067D6CF910895933009F4C5
:1002F00084C0943009F473C0BDDEF6CF9091D7006E
:1003000098279093D700833021F482E08093D8001F
:10031000EACF9091D6009295907F8F70892B809331
:10032000D600E1CF9091D7009813E6CF83E0809379
:10033000D80041D6C091D600C037F0F6C03658F488
:10034000C13089F0C23099F0C111D6CF84DE84E08B
:100350008093D800C9CFC056C03170F6EC2FF0E0C2
:10036000EE5CF64F099465DFC093D900BDCF66DF20
:10037000BBCF81E0809378006EDFF0D3B5CF63DF31
:10038000F1D3B2CF8EDFF2D3AFCF93DF15D4ACCFA2
:1003900078DF67D4A9CF5FDF5EDFA6CF7ADF70D4C6
:1003A000A3CF68DFD2D3F8CF65DFC6D3F5CF85E022
:1003B0008093780050DF74D497CF89E080937800E1
:1003C0004ADF76D491CF8DE08093780044DF74D4F7
:1003D0008BCF81E0809378003EDF66D485CF843078
:1003E00009F08ACFE8D58091D60081117DCF109297
:1003F000D80083E08093DA0077CF863009F07CCF95
:10040000DAD52CDE79CF8091DA00823009F442C04F
:1004100058F481111DC07ED0882349F03FD0CBD540
:1004200081E08093DA000895833091F10895CBD56F
:10043000882389F18091D40091E089278093D400AA
:10044000882319F02BD0BBD5089526D0B4D50895B4
:1004500061D0882311F035DF0895B5D5882311F0D8
:1004600009DE08958091D9008823A9F08091D800F1
:10047000811111C080917F019091D500981759F09A
:1004800082E08093DA0080917F018093D500089507
:1004900019DE08954DDE0895C29A0895C298089510
:1004A000A4E0B0E0E5E5F2E061C682B790E0B0E03C
:1004B000A0E09C01AD012C5C3F4F4F4F5F4F298363
:1004C0003A834B835C83CA01B90128E630E040E0FF
:1004D00050E020D668BD89B7886089BF81E08093ED
:1004E000EB00A8982496E2E05DC689B7877F89BFB4
:1004F000A89A1092EB000895EBEEF0E0108213A2A0
:1005000014A215A21092330110923401EEDFC198AB
:10051000C5DF089520910F0190910E0181E029130C
:1005200001C080E00895ABEEB0E09496EC91949712
:10053000F0E0E551FF4F838194962C91949730E041
:100540002F5F3F4F2F71332794962C930895982F48
:1005500092959F709827892F869586958927982F41
:10056000969589278170089589B7806189BF08951C
:100570002091330130E02F5F3F4F2F713327922FAF
:10058000409134014917E1F3E0913301F0E0E55186
:10059000FF4F80A720933301E7DF089589B78F7E4F
:1005A00089BF0895882311F0C1980895C19A0895CC
:1005B0001F920F920FB60F9211242F933F934F93D8
:1005C0005F936F937F938F939F93AF93BF93EF93BB
:1005D000FF9380911001811130C09091340180917E
:1005E00033019817C9F0E0913401F0E0E551FF4F75
:1005F00080A58093110181E08093100180913401E6
:1006000090E001968F7199278093340180911101B8
:100610009EDF80931201CFD4FF91EF91BF91AF91F4
:100620009F918F917F916F915F914F913F912F910A
:100630000F900FBE0F901F901895809110018F5F43
:1006400080931001809110018B3001F178F4823099
:10065000D1F08350883000F7809111018170A2DFC2
:1006600080911101869580931101D6CF8C30A1F62F
:10067000C1989091340180913301981301C08EDFAD
:1006800010921001C9CF80E08DDFC6CF809112019A
:10069000FBCF1F920F920FB60F9211242F933F930F
:1006A0004F935F936F937F938F939F93AF93BF937A
:1006B000EF93FF938091EB008823B1F08091EB00E2
:1006C0008F5F8093EB008091EB008B30E9F1E8F4D1
:1006D000823081F18350883038F48091EC00869527
:1006E0008093EC00B0992AC0FF91EF91BF91AF9138
:1006F0009F918F917F916F915F914F913F912F913A
:100700000F900FBE0F901F9018958C3069F7B09B1B
:1007100013C0E0910E01F0E08091EC00E551FF4F35
:10072000838380910E0190E001968F7199278093C9
:100730000E0102C0B09BD8CFD8DED6CF8091EC009E
:1007400080688093EC00D0CF8091EC0000DF96B3FE
:100750009170891749F2F0CFA4E0B0E0E1EBF3E04B
:1007600005C58FB590E0B0E0A0E09C01AD012C5C28
:100770003F4F4F4F5F4F29833A834B835C83CA01BE
:10078000B90128E630E040E050E0C4D46EBD89B73E
:10079000806489BF81E080933501AB982496E2E0C4
:1007A00001C589B78F7B89BFAB9A10923501089537
:1007B000209159019091580181E0291301C080E0F6
:1007C0000895A5E3B1E09496EC919497F0E0EB5C8A
:1007D000FE4F838194962C91949730E02F5F3F4F8A
:1007E0002F71332794962C93089520917D0130E04A
:1007F0002F5F3F4F2F713327922F40917E01491772
:10080000E1F3E0917D01F0E0EB5CFE4F80A72093E7
:100810007D01089589B7806289BF0895E5E3F1E01D
:10082000108213A214A215A210927D0110927E01D3
:10083000B8DFC49AEFDF0895882311F0C49A0895B1
:10084000C49808951F920F920FB60F9211242F9300
:100850003F934F935F936F937F938F939F93AF9348
:10086000BF93EF93FF9380913501882369F08091C6
:1008700035018F5F80933501809135018B30A8F46D
:10088000833068F5823039F1FF91EF91BF91AF91DC
:100890009F918F917F916F915F914F913F912F9198
:1008A0000F900FBE0F901F9018958B50823060F7FD
:1008B000B39B13C0E0915801F0E080913601EB5CEE
:1008C000FE4F83838091580190E001968F719927A4
:1008D0008093580102C0B39BD7CF63DFD5CF8091FF
:1008E0003601869580933601B39BCECF8091360139
:1008F000806880933601C8CF1F920F920FB60F9277
:1009000011242F933F934F935F936F937F938F9314
:100910009F93AF93BF93EF93FF9380915A018111FF
:1009200058C090917E0180917D01981799F0E091D7
:100930007E01F0E0EB5CFE4F80A580935B0181E0DF
:1009400080935A0180917E0190E001968F719927E2
:1009500080937E0180918301882329F08091830117
:10096000815080938301809182018F5F8093820107
:10097000809182018036E1F41092820180918101A0
:100980008F5F809381019091810180918001981304
:1009900003C088EC8093800180918101843641F40A
:1009A00080917F0191E0892780937F0110928101DE
:1009B000FF91EF91BF91AF919F918F917F916F9137
:1009C0005F914F913F912F910F900FBE0F901F900D
:1009D000189580915A018F5F80935A0180915A0136
:1009E0008B3040F4833070F4823009F0B3CF80E074
:1009F00023DFB0CF8B50823008F0ACCFC49A109276
:100A00005A01A8CF80915B01817016DF80915B0154
:100A1000869580935B019ECFE6E7F0E0648170E00D
:100A20008681978150D36F5F638308951092E900A8
:100A30001092E8001092E7001092E0000895809173
:100A40007600813019F0823019F00895A4D208950B
:100A5000AAD20895B0E0A0E0EFE2F5E081C38C01F6
:100A60008EE7C3DE8FEFC1DE7801680185E0C80E36
:100A7000D11CCFEFD0E0F70181917F01B6DEF70105
:100A800031978081C80FD11DEC14FD04A1F7D195D9
:100A9000C195D1098D2FA9DE8C2FA7DE8FEEA5DEA3
:100AA000F801818181118093EA00CDB7DEB7E8E0DB
:100AB00073C380917600813019F0823019F0089567
:100AC0005AD2089560D208958091770080FF05C0C2
:100AD00081E080937600EDDF089581FFFCCF82E016
:100AE000F8CF81E08093DD008091810190E00A964B
:100AF00064E670E0FCD28F5F80938001089581E00E
:100B00008093DE008091810190E0449664E670E07D
:100B1000EED28F5F80938001089581E08093DC00A6
:100B20008091810190E0805B9F4F68EC70E0DFD2A4
:100B30008F5F80938001089581E080937600809399
:100B400070008CE690E086DF089582E08093760066
:100B5000809370008CE690E07DDF089581EC90E05A
:100B600079DF08958CEB90E075DF089580917C002B
:100B700090917D00209178002D30B1F028F429303B
:100B800021F02B7F213009F0019760917E00709158
:100B90007F0099D2019690937D0080937C003CDF8A
:100BA0008BEC90E057DF089520917E0020FD02C07D
:100BB000CE96EBCFCD96E9CF80917C0090917D00D1
:100BC000209178002D30C1F028F4293099F02B7F46
:100BD000213081F0019760917E0070917F0073D287
:100BE000019690937D0080937C0016DF86EC90E068
:100BF00031DF08950297EFCF20917E0020FD03C0E2
:100C000080549109E8CFCF97E6CF80917C009091F6
:100C10007D0098278927982790937500809374000A
:100C200081E790E017DF08958091790060917A0064
:100C300070E08150990B2AD2019690937D008093A9
:100C40007C0020917E0030917F002817390740F406
:100C500081E090E090937D0080937C008093790008
:100C60000895809179008F5F8093790090917B0047
:100C7000981718F481E080937900D6DFC6DF0895D5
:100C80008091790081508093790090917B00882336
:100C900011F0981710F490937900C6DFB6DF08952D
:100CA00087EB90E0D7DE089582EB90E0D3DE0895E5
:100CB00088EA90E0CFDE08958DEA90E0CBDE0895DB
:100CC00083EA90E0C7DE089580917600813019F0C4
:100CD000823039F008958093DF0084E990E0BADE35
:100CE000089581E08093DF008FE890E0F8CF60DD29
:100CF000882309F4F5C065DD9091E9009A3008F089
:100D000083C0E92FF0E0EE5BF64F09948E3709F0CF
:100D10000CC181E08093E9001092E8001092E70096
:100D200008958F3F09F070C082E08093E9008091C0
:100D3000E7009091E80081509F4F9093E8008093E6
:100D4000E7000895863009F05FC083E08093E900F2
:100D50008091E7009091E80006969093E8008093D8
:100D6000E7001092E00008959F5F9093E900909152
:100D7000E000E92FF0E0EF51FF4F80839F5F9093F9
:100D8000E0002091E7003091E800820F932F911D41
:100D9000D4CF2091E7003091E800319521953109B9
:100DA0003093E8002093E70083132EC088E08093FF
:100DB000E90008959091E700981326C089E0F7CFE5
:100DC0008F3E11F5E091E100EA53E331E8F4F0E001
:100DD000E45BF64F09949091E40090937600809143
:100DE0007700892B8093770064DE97DE0DC08091B9
:100DF000E40080959091770089238093770090910B
:100E00007600892309F460DE11DE089581E0809385
:100E1000760067DEF9CF82E0FACF8091E400882384
:100E200099F38093770050DEE0CF8091E300882330
:100E300019F18091E3009091E40098278927982781
:100E40002091E4002223C1F090937D0080937C00E8
:100E5000E3DD8091DF008823E1F21092DF00EFDD17
:100E6000D3CF8091EA00823461F070F68D3021F0AA
:100E700028F48150833040F642DEC6CF8F33E1F351
:100E8000C3CF8091E300809376008091E4008111CC
:100E9000BBCFBFCF8091E300882309F4A6CF809118
:100EA000E3009091E4009827892798272091E40097
:100EB000222309F49ACF90937F0080937E008133A0
:100EC00026E0920758F020E220937A0060917A00A1
:100ED00070E0F9D06F5F60937B00C1CF20E1F4CF69
:100EE00080918001883C09F58091DB008823F1F036
:100EF0001092DB0021DE8091DB0081110CC080911B
:100F0000DC00811108C08091DE00811104C0809155
:100F1000DD00882371F18091810190E00A9664E6FA
:100F200070E0E5D08F5F8093800108958091DC00B0
:100F3000882379F01092DC0080917600813029F0CE
:100F40008230C9F689E990E002C08EE990E082DD46
:100F5000D2CF8091DE00882321F01092DE00B4DE33
:100F6000CACF8091DD00882331F21092DD00FEDDD2
:100F7000C2CF89ECD8CF4AE050E06AE070E086E763
:100F800090E03DD108954AE050E060E070E086E7EF
:100F900090E035D108954AE050E06AE070E086E7DD
:100FA00090E03DD108954AE050E060E070E086E7CF
:100FB00090E035D108958AE68093830108958FE00B
:100FC0008093830108959091830181E0911180E0E5
:100FD000089580E886BD16BC87B3866187BBC49A36
:100FE00089E085BB80E28ABF8BBF8AB582608ABDFB
:100FF00082E083BF88E689BD94E890BF1BBC8DBDAD
:101000000DDC7ADA78940895F894A89584B7877FF0
:1010100084BF88E181BD89ED81BD789408951F92D8
:101020000F920FB60F9211242F933F934F935F931C
:101030006F937F938F939F93AF93BF93EF93FF93A0
:10104000A89B06C08091EB00811102C0B09B28DAFA
:10105000AB9B06C080913501811102C0B39B7CDB44
:10106000FF91EF91BF91AF919F918F917F916F9180
:101070005F914F913F912F910F900FBE0F901F9056
:101080001895A7DF16DD33DEBED9FDCF0024552726
:1010900004C0080E591F880F991F009729F07695F4
:1010A0006795B8F37105B9F7802D952F0895991BB1
:1010B00079E004C0991F961708F0961B881F7A954F
:1010C000C9F780950895AA1BBB1B51E107C0AA1F51
:1010D000BB1FA617B70710F0A61BB70B881F991FD9
:1010E0005A95A9F780959095BC01CD01089597FB7D
:1010F000072E16F4009406D077FD08D0E4DF07FC35
:1011000005D03EF4909581959F4F08957095619517
:101110007F4F0895052E97FB16F400940FD057FDCE
:1011200005D04BD007FC02D046F408C0509540953E
:10113000309521953F4F4F4F5F4F08959095809583
:10114000709561957F4F8F4F9F4F08952F923F92DB
:101150004F925F926F927F928F929F92AF92BF92C7
:10116000CF92DF92EF92FF920F931F93CF93DF9373
:10117000CDB7DEB7CA1BDB0B0FB6F894DEBF0FBED0
:10118000CDBF09942A88398848885F846E847D841D
:101190008C849B84AA84B984C884DF80EE80FD801F
:1011A0000C811B81AA81B981CE0FD11D0FB6F89495
:1011B000DEBF0FBECDBFED010895A1E21A2EAA1B1E
:1011C000BB1BFD010DC0AA1FBB1FEE1FFF1FA217F7
:1011D000B307E407F50720F0A21BB30BE40BF50BF4
:1011E000661F771F881F991F1A9469F7609570957D
:1011F000809590959B01AC01BD01CF010895DC0164
:10120000CB01FC01E199FECF06C0FFBBEEBBE09A2B
:1012100031960DB20D9241505040B8F70895DC015F
:10122000A40FB51F4150504040F0CB01840F951FD3
:101230002E9105D041505040D8F70895262FE199BE
:10124000FECF9FBB8EBBE09A01970DB2021639F01C
:101250001CBA2DBB0FB6F894E29AE19A0FBE08951E
:10126000F894FFCF86C848C88AC88CC88EC890C872
:1012700092C894C890C840C894C896C898C89DC8D9
:10128000A2C8A7C843CD4DCD5DCD6ECD6DCD6CCD83
:101290006BCD7FCD8FCD94CD9ECDA9CDB7CDBBCD20
:1012A000B3CDBBCDB1CDDDCDAFCDAECDADCDACCD24
:0E12B000ABCDF0CDEFCDA8CDA7CDB7CDB6CD4F
:1012BE00332201353031303130303030063F0100CD
:1012CE000106030100000101010110630100B70BCB
:1012DE00332A00313F80200100310000200000063B
:1012EE004C010000064B01000006480100000647B5
:1012FE000100000642010000061901000006180157
:10130E00000006110100000611010001060E010089
:10131E0000060D010000060201000006010100009A
:02132E0030008D
:00000001FF
