:100000000EC028C012C81EC425C024C023C022C0F0
:1000100021C072C4CDC23DC31DC01CC01BC0112471
:100020001FBECFE5D2E0DEBFCDBF10E0A0E6B0E05E
:10003000EAECF2E102C005900D92AC3DB107D9F7B0
:1000400021E0ACEDB0E001C01D92AE38B207E1F79F
:100050001ED80CC9D5CF86E08BD2089584E088D213
:10006000089582E085D2089583E082D2089580E1E8
:100070007FD20895A6D71092E20081E08093E40039
:100080000895FF920F931F93CF93DF93F82E192FAC
:10009000062FE7DFCF2DD12F0C0F1D2F111DF12CB7
:1000A000C017D10741F4E0DF83E08F2561D2CDB7DF
:1000B000DEB7E5E07AC889915BD2FE013197808195
:1000C000F826EECF8091DD008130A1F0823009F179
:1000D000811105C0E1D175D781E08093DD0079D72A
:1000E000882339F06ED71092DD0081E08093E40020
:1000F000D5D108950FD2882391F315D2863079F7A0
:1001000060D782E08093DD0061E08AED90E0B9DFA6
:10011000E6CF00D2882319F306D2863001F751D7F3
:100120001092DD0081E08093E400B8D197DFD7CF53
:100130008091DC008130C1F1823009F44DC0811121
:1001400054C0809180002AE0622FB7D7805D8093F1
:100150006400905D9093650080918300AED7805DD0
:1001600080936600905D90936700809186009091E7
:10017000870064E670E0ADD7382F862F622F9DD7B9
:10018000805D80936800905D90936900832F95D780
:10019000805D80936A00905D90936B007DD111D754
:1001A00081E08093DC000895B5D1882351F0BBD164
:1001B0008630D9F406D769E083E690E062DF82E01A
:1001C000F0CF07D7882389F069D1FBD61092DC00E5
:1001D00081E08093E40008959DD1882391F3A3D119
:1001E000863091F75BD13ADFEFCF0895FF920F93FE
:1001F0001F93CF93DF93F82E192F062F38DF31DFAF
:10020000CF2DD12F0C0F1D2F111DF12CC017D10791
:1002100049F42DDF29DF83E18F25AAD1CDB7DEB7E1
:10022000E5E0C3C78991A4D1FE0131978081F8260A
:10023000EDCF66E08DE890E0D9DF089566E083E9D0
:1002400090E0D4DF089580E28093610063E080E66F
:1002500090E0CCDF0895E0E6F0E082E281838091D7
:100260008200828363E0CF01C1DF0895F4DF089547
:10027000F2DF089563E08AE890E0B8DF0895FADFDE
:10028000089586E28093610063E080E690E0AEDF4F
:10029000089587E28093610063E080E690E0A6DF46
:1002A000089584E28093610063E080E690E09EDF41
:1002B000089585E28093610063E080E690E096DF38
:1002C0000895CF9330D19091E200923059F170F4BB
:1002D000911114C0823081F481E08093E200109289
:1002E000E1001092E0006DD6CF910895933009F4AB
:1002F00084C0943009F473C0BDDEF6CF9091E10064
:1003000098279093E100833021F482E08093E2000B
:10031000EACF9091E0009295907F8F70892B809327
:10032000E000E1CF9091E1009813E6CF83E0809365
:10033000E20047D6C091E000C037F0F6C03658F46E
:10034000C13089F0C23099F0C111D6CF84DE84E08B
:100350008093E200C9CFC056C03170F6EC2FF0E0B8
:10036000E85CF64F099465DFC093E300BDCF66DF1C
:10037000BBCF81E0809382006EDF1ED4B5CF63DFF8
:10038000F1D3B2CF8EDFF2D3AFCF93DF1DD4ACCF9A
:1003900078DF6FD4A9CF5FDF5EDFA6CF7ADF78D4B6
:1003A000A3CF68DFD2D3F8CF65DFC6D3F5CF85E022
:1003B0008093820050DF7CD497CF89E080938200C5
:1003C0004ADF7ED491CF8DE08093820044DF7CD4DD
:1003D0008BCF81E0809382003EDF6ED485CF843066
:1003E00009F08ACFEED58091E00081117DCF109287
:1003F000E20083E08093E40077CF863009F07CCF81
:10040000E0D52CDE79CF8091E400823009F442C03F
:1004100058F481111DC07ED0882349F03FD0D1D53A
:1004200081E08093E4000895833091F10895D1D55F
:10043000882389F18091DE0091E089278093DE0096
:10044000882319F02BD0C1D5089526D0BAD50895A8
:1004500061D0882311F035DF0895BBD5882311F0D2
:1004600009DE08958091E3008823A9F08091E200DD
:10047000811111C0809189019091DF00981759F086
:1004800082E08093E400809189018093DF000895E9
:1004900019DE08954DDE0895C29A0895C298089510
:1004A000A4E0B0E0E5E5F2E067C682B790E0B0E036
:1004B000A0E09C01AD012C5C3F4F4F4F5F4F298363
:1004C0003A834B835C83CA01B90128E630E040E0FF
:1004D00050E026D668BD89B7886089BF81E08093E7
:1004E000F500A8982496E2E063C689B7877F89BFA4
:1004F000A89A1092F5000895E5EFF0E0108213A29B
:1005000014A215A210923D0110923E01EEDFC19897
:10051000C5DF0895209119019091180181E02913F8
:1005200001C080E00895A5EFB0E09496EC91949717
:10053000F0E0EB50FF4F838194962C91949730E03C
:100540002F5F3F4F2F71332794962C930895982F48
:1005500092959F709827892F869586958927982F41
:10056000969589278170089589B7806189BF08951C
:1005700020913D0130E02F5F3F4F2F713327922FA5
:1005800040913E014917E1F3E0913D01F0E0EB506D
:10059000FF4F80A720933D01E7DF089589B78F7E45
:1005A00089BF0895882311F0C1980895C19A0895CC
:1005B0001F920F920FB60F9211242F933F934F93D8
:1005C0005F936F937F938F939F93AF93BF93EF93BB
:1005D000FF9380911A01811130C090913E0180916A
:1005E0003D019817C9F0E0913E01F0E0EB50FF4F5C
:1005F00080A580931B0181E080931A0180913E01C8
:1006000090E001968F71992780933E0180911B01A4
:100610009EDF80931C01D5D4FF91EF91BF91AF91E4
:100620009F918F917F916F915F914F913F912F910A
:100630000F900FBE0F901F90189580911A018F5F39
:1006400080931A0180911A018B3001F178F4823085
:10065000D1F08350883000F780911B018170A2DFB8
:1006600080911B01869580931B01D6CF8C30A1F61B
:10067000C19890913E0180913D01981301C08EDF99
:1006800010921A01C9CF80E08DDFC6CF80911C0186
:10069000FBCF1F920F920FB60F9211242F933F930F
:1006A0004F935F936F937F938F939F93AF93BF937A
:1006B000EF93FF938091F5008823B1F08091F500CE
:1006C0008F5F8093F5008091F5008B30E9F1E8F4BD
:1006D000823081F18350883038F48091F60086951D
:1006E0008093F600B0992AC0FF91EF91BF91AF912E
:1006F0009F918F917F916F915F914F913F912F913A
:100700000F900FBE0F901F9018958C3069F7B09B1B
:1007100013C0E0911801F0E08091F600EB50FF4F1C
:1007200083838091180190E001968F7199278093BF
:10073000180102C0B09BD8CFD8DED6CF8091F6008A
:1007400080688093F600D0CF8091F60000DF96B3EA
:100750009170891749F2F0CFA4E0B0E0E1EBF3E04B
:100760000BC58FB590E0B0E0A0E09C01AD012C5C22
:100770003F4F4F4F5F4F29833A834B835C83CA01BE
:10078000B90128E630E040E050E0CAD46EBD89B738
:10079000806489BF81E080933F01AB982496E2E0BA
:1007A00007C589B78F7B89BFAB9A10923F01089527
:1007B000209163019091620181E0291301C080E0E2
:1007C0000895AFE3B1E09496EC919497F0E0E15C8A
:1007D000FE4F838194962C91949730E02F5F3F4F8A
:1007E0002F71332794962C9308952091870130E040
:1007F0002F5F3F4F2F713327922F40918801491768
:10080000E1F3E0918701F0E0E15CFE4F80A72093E7
:100810008701089589B7806289BF0895EFE3F1E009
:10082000108213A214A215A21092870110928801BF
:10083000B8DFC49AEFDF0895882311F0C49A0895B1
:10084000C49808951F920F920FB60F9211242F9300
:100850003F934F935F936F937F938F939F93AF9348
:10086000BF93EF93FF9380913F01882369F08091BC
:100870003F018F5F80933F0180913F018B30A8F44F
:10088000833068F5823039F1FF91EF91BF91AF91DC
:100890009F918F917F916F915F914F913F912F9198
:1008A0000F900FBE0F901F9018958B50823060F7FD
:1008B000B39B13C0E0916201F0E080914001E15CE4
:1008C000FE4F83838091620190E001968F7199279A
:1008D0008093620102C0B39BD7CF63DFD5CF8091F5
:1008E0004001869580934001B39BCECF809140011B
:1008F000806880934001C8CF1F920F920FB60F926D
:1009000011242F933F934F935F936F937F938F9314
:100910009F93AF93BF93EF93FF93809164018111F5
:1009200058C09091880180918701981799F0E091C3
:100930008801F0E0E15CFE4F80A58093650181E0D5
:10094000809364018091880190E001968F719927CE
:100950008093880180918D01882329F080918D01F9
:10096000815080938D0180918C018F5F80938C01E9
:1009700080918C018036E1F410928C0180918B0182
:100980008F5F80938B0190918B0180918A019813E6
:1009900003C088EC80938A0180918B01843641F4F6
:1009A0008091890191E089278093890110928B01C0
:1009B000FF91EF91BF91AF919F918F917F916F9137
:1009C0005F914F913F912F910F900FBE0F901F900D
:1009D0001895809164018F5F809364018091640118
:1009E0008B3040F4833070F4823009F0B3CF80E074
:1009F00023DFB0CF8B50823008F0ACCFC49A109276
:100A00006401A8CF80916501817016DF8091650136
:100A10008695809365019ECFE0E8F0E0648170E008
:100A20008681978156D36F5F638308951092F30098
:100A30001092F2001092F1001092EA000895809155
:100A40008000813019F0823019F00895AAD20895FB
:100A5000B0D20895B0E0A0E0EFE2F5E087C38C01EA
:100A60008EE7C3DE8FEFC1DE7801680185E0C80E36
:100A7000D11CCFEFD0E0F70181917F01B6DEF70105
:100A800031978081C80FD11DEC14FD04A1F7D195D9
:100A9000C195D1098D2FA9DE8C2FA7DE8FEEA5DEA3
:100AA000F801818181118093F400CDB7DEB7E8E0D1
:100AB00079C380918000813019F0823019F0089557
:100AC00060D2089566D208958091810080FF05C0AC
:100AD00081E080938000EDDF089581FFFCCF82E00C
:100AE000F8CF81E08093E70080918B0190E00A9637
:100AF00064E670E002D38F5F80938A01089581E0FD
:100B00008093E80080918B0190E0449664E670E069
:100B1000F4D28F5F80938A01089581E08093E6008C
:100B200080918B0190E0805B9F4F68EC70E0E5D294
:100B30008F5F80938A01089581E080938000809385
:100B400070008CE690E086DF089582E0809380005C
:100B5000809370008CE690E07DDF08958BEC90E050
:100B600079DF089586EC90E075DF08958091860026
:100B700090918700209182002D30B1F028F4293027
:100B800021F02B7F213009F001976091880070914E
:100B900089009FD2019690938700809386003CDF66
:100BA00085ED90E057DF08952091880020FD02C078
:100BB000CE96EBCFCD96E9CF86E790E04BDF81E78D
:100BC00090E048DFD3DF0895809186009091870000
:100BD000209182002D30C1F028F4293099F02B7F2C
:100BE000213081F00197609188007091890071D265
:100BF000019690938700809386000EDF80ED90E051
:100C000029DF08950297EFCF2091880020FD03C0CF
:100C100080549109E8CFCF97E6CF809186009091DC
:100C2000870098278927982790937F0080937E00DC
:100C30008BE790E00FDF089580918300609184003E
:100C400070E08150990B28D2019690938700809391
:100C5000860020918800309189002817390740F4D8
:100C600081E090E0909387008093860080938300DA
:100C70000895809183008F5F809383009091850019
:100C8000981718F481E080938300D6DFC6DF0895BB
:100C90008091830081508093830090918500882308
:100CA00011F0981710F490938300C6DFB6DF089513
:100CB00081EC90E0CFDE08958CEB90E0CBDE0895E0
:100CC00082EB90E0C7DE089587EB90E0C3DE0895E5
:100CD0008DEA90E0BFDE089580918000813019F0A8
:100CE000823039F008958093E9008EE990E0B2DE19
:100CF000089581E08093E90089E990E0F8CF58DD1C
:100D0000882309F4F3C05DDD9091F3009A3008F078
:100D100083C0E92FF0E0E85BF64F09948E3709F0C5
:100D20000AC181E08093F3001092F2001092F1006A
:100D300008958F3F09F070C082E08093F3008091A6
:100D4000F1009091F20081509F4F9093F2008093B8
:100D5000F1000895863009F05FC083E08093F300CE
:100D60008091F1009091F20006969093F2008093AA
:100D7000F1001092EA0008959F5F9093F300909124
:100D8000EA00E92FF0E0E551FF4F80839F5F9093E9
:100D9000EA002091F1003091F200820F932F911D13
:100DA000D4CF2091F1003091F20031952195310995
:100DB0003093F2002093F10083132EC088E08093DB
:100DC000F30008959091F100981326C089E0F7CFC1
:100DD0008F3E11F5E091EB00EA53E331E8F4F0E0E7
:100DE000EE5AF64F09949091EE0090938000809116
:100DF0008100892B809381005CDE8FDE0DC08091A5
:100E0000EE008095909181008923809381009091DC
:100E10008000892309F458DE09DE089581E080937B
:100E200080005FDEF9CF82E0FACF8091EE00882368
:100E300099F38093810048DEE0CF8091ED0090919E
:100E4000EE009827892798272091ED003091EE0039
:100E5000232BC1F09093870080938600DDDD809185
:100E6000E9008823F1F21092E900E9DDD5CF809105
:100E7000F400823461F080F68D3021F028F4815046
:100E8000833050F63CDEC8CF8F33E1F3C5CF80917D
:100E9000ED00809380008091EE008111BDCFC1CF25
:100EA0008091ED00882309F4A8CF8091ED00909106
:100EB000EE009827892798272091EE00222309F435
:100EC0009CCF9093890080938800813326E092071D
:100ED00058F020E2209384006091840070E0F9D003
:100EE0006F5F60938500C1CF20E1F4CF80918A01CC
:100EF000883C09F58091E5008823F1F01092E50027
:100F00001BDE8091E50081110CC08091E60081110B
:100F100008C08091E800811104C08091E700882317
:100F200071F180918B0190E00A9664E670E0E5D063
:100F30008F5F80938A0108958091E600882379F07D
:100F40001092E60080918000813029F08230C9F64D
:100F500083EA90E002C088EA90E07CDDD2CF809105
:100F6000E800882321F01092E800B6DECACF809115
:100F7000E700882331F21092E700F8DDC2CF89EC58
:100F8000D8CF4AE050E06AE070E080E890E03DD1E0
:100F900008954AE050E060E070E080E890E035D1EC
:100FA00008954AE050E06AE070E080E890E03DD1CA
:100FB00008954AE050E060E070E080E890E035D1CC
:100FC00008958AE680938D0108958FE080938D01C6
:100FD000089590918D0181E0911180E0089580E85D
:100FE00086BD16BC87B3866187BBC49A89E085BB82
:100FF00080E28ABF8BBF8AB582608ABD82E083BFF0
:1010000088E689BD94E890BF1BBC8DBD07DC74DA0F
:1010100078940895F894A89584B7877F84BF88E171
:1010200081BD89ED81BD789408951F920F920FB60E
:101030000F9211242F933F934F935F936F937F935E
:101040008F939F93AF93BF93EF93FF93A89B06C09B
:101050008091F500811102C0B09B22DAAB9B06C0E3
:1010600080913F01811102C0B39B76DBFF91EF912C
:10107000BF91AF919F918F917F916F915F914F91B0
:101080003F912F910F900FBE0F901F901895A7DFE3
:1010900010DD35DEB8D9FDCF0024552704C0080E79
:1010A000591F880F991F009729F076956795B8F317
:1010B0007105B9F7802D952F0895991B79E004C02B
:1010C000991F961708F0961B881F7A95C9F7809587
:1010D0000895AA1BBB1B51E107C0AA1FBB1FA6177F
:1010E000B70710F0A61BB70B881F991F5A95A9F7D1
:1010F00080959095BC01CD01089597FB072E16F4BD
:10110000009406D077FD08D0E4DF07FC05D03EF45C
:10111000909581959F4F0895709561957F4F0895A3
:10112000052E97FB16F400940FD057FD05D04BD039
:1011300007FC02D046F408C05095409530952195A3
:101140003F4F4F4F5F4F08959095809570956195F3
:101150007F4F8F4F9F4F08952F923F924F925F92F4
:101160006F927F928F929F92AF92BF92CF92DF92B7
:10117000EF92FF920F931F93CF93DF93CDB7DEB71C
:10118000CA1BDB0B0FB6F894DEBF0FBECDBF0994B0
:101190002A88398848885F846E847D848C849B8407
:1011A000AA84B984C884DF80EE80FD800C811B8115
:1011B000AA81B981CE0FD11D0FB6F894DEBF0FBE44
:1011C000CDBFED010895A1E21A2EAA1BBB1BFD01A4
:1011D0000DC0AA1FBB1FEE1FFF1FA217B307E40716
:1011E000F50720F0A21BB30BE40BF50B661F771F6E
:1011F000881F991F1A9469F760957095809590954E
:101200009B01AC01BD01CF010895DC01CB01FC01C4
:10121000E199FECF06C0FFBBEEBBE09A31960DB25E
:101220000D9241505040B8F70895DC01A40FB51F4E
:101230004150504040F0CB01840F951F2E9105D0B6
:1012400041505040D8F70895262FE199FECF9FBB1B
:101250008EBBE09A01970DB2021639F01CBA2DBB75
:101260000FB6F894E29AE19A0FBE0895F894FFCF72
:1012700080C842C884C886C888C88AC88CC88EC836
:101280008AC83AC88EC890C892C897C89CC8A1C8D6
:1012900045CD4FCD5FCD70CD6FCD6ECD6DCD81CDB8
:1012A00091CD96CDA0CDABCDB9CDBDCDB5CDBDCD7C
:1012B000B3CDDDCDB1CDB0CDAFCDAECDADCDF0CDDB
:0A12C000EFCDAACDA9CDB9CDB8CD70
:1012CA00332201353031303130303030063F0100C1
:1012DA00010607010000060601001C0603010000C2
:1012EA000101010110630100B70B332A00313F806D
:1012FA00200100310000200000064C010000064BCE
:10130A0001000006480100000647010000064201EC
:10131A00000006190100000618010000061101006C
:10132A00000611010001060E010000060D01000071
:0C133A0006020100000601010000300066
:00000001FF
