:100000000EC028C009C81DC425C024C023C022C0FA
:1000100021C071C4CCC23CC31DC01CC01BC0112474
:100020001FBECFE5D2E0DEBFCDBF10E0A0E6B0E05E
:10003000E8EBF2E102C005900D92A23DB107D9F7BD
:1000400021E0A2EDB0E001C01D92A438B207E1F7B3
:1000500015D803C9D5CF86E08AD2089584E087D227
:10006000089582E084D2089583E081D2089580E1EA
:100070007ED208959DD71092D80081E08093DA0057
:100080000895FF920F931F93CF93DF93F82E192FAC
:10009000062FE7DFCF2DD12F0C0F1D2F111DF12CB7
:1000A000C017D10741F4E0DF83E08F2560D2CDB7E0
:1000B000DEB7E5E071C889915AD2FE01319780819F
:1000C000F826EECF8091D3008130A1F0823009F183
:1000D000811105C0E0D16CD781E08093D30070D747
:1000E000882339F065D71092D30081E08093DA003D
:1000F000D4D108950ED2882391F314D2863079F7A3
:1001000057D782E08093D30061E080ED90E0B9DFC3
:10011000E6CFFFD1882319F305D2863001F748D7FF
:100120001092D30081E08093DA00B7D197DFD7CF68
:100130008091D2008130C1F1823009F44DC081112B
:1001400054C0809176002AE0622FAED7805D809304
:100150006400905D9093650080917900A5D7805DE3
:1001600080936600905D9093670080917C009091F1
:100170007D0064E670E0A4D7382F862F622F94D7D5
:10018000805D80936800905D90936900832F8CD789
:10019000805D80936A00905D90936B007CD108D75E
:1001A00081E08093D2000895B4D1882351F0BAD170
:1001B0008630D9F4FDD669E083E690E062DF82E024
:1001C000F0CFFED6882389F068D1F2D61092D20003
:1001D00081E08093DA0008959CD1882391F3A2D125
:1001E000863091F75AD13ADFEFCF0895FF920F93FF
:1001F0001F93CF93DF93F82E192F062F38DF31DFAF
:10020000CF2DD12F0C0F1D2F111DF12CC017D10791
:1002100049F42DDF29DF83E18F25A9D1CDB7DEB7E2
:10022000E5E0BAC78991A3D1FE0131978081F82614
:10023000EDCF66E083E890E0D9DF089566E089E8D5
:1002400090E0D4DF089580E28093610063E080E66F
:1002500090E0CCDF0895E0E6F0E082E281838091D7
:100260007800828363E0CF01C1DF0895F4DF089551
:10027000F2DF089563E080E890E0B8DF0895FADFE8
:10028000089586E28093610063E080E690E0AEDF4F
:10029000089587E28093610063E080E690E0A6DF46
:1002A000089584E28093610063E080E690E09EDF41
:1002B000089585E28093610063E080E690E096DF38
:1002C0000895CF932FD19091D800923059F170F4C6
:1002D000911114C0823081F481E08093D800109293
:1002E000D7001092D60064D6CF910895933009F4C8
:1002F00083C0943009F472C0BDDEF6CF9091D70070
:1003000098279093D700833021F482E08093D8001F
:10031000EACF9091D6009295907F8F70892B809331
:10032000D600E1CF9091D7009813E6CF83E0809379
:10033000D8003ED6C091D600C037F0F6C03658F48B
:10034000C13089F0C23099F0C111D6CF84DE84E08B
:100350008093D800C9CFC056C03170F6EC2FF0E0C2
:10036000E15DF64F099465DFC093D900BDCF66DF2C
:10037000BBCF81E0809378006EDFF7D3B5CF63DF2A
:10038000F0D3B2CF8EDFF9CF94DF15D4ADCF79DFC4
:1003900067D4AACF60DF5FDFA7CF7BDF70D4A4CFA5
:1003A00069DFD2D3F8CF66DFC6D3F5CF85E080937F
:1003B000780051DF74D498CF89E0809378004BDFC8
:1003C00076D492CF8DE08093780045DF74D48CCFC3
:1003D00081E0809378003FDF66D486CF843009F0D7
:1003E0008BCFE6D58091D60081117ECF1092D800B8
:1003F00083E08093DA0078CF863009F07DCFD8D5BE
:100400002DDE7ACF8091DA00823009F442C058F4B0
:1004100081111DC07ED0882349F03FD0C9D581E02D
:100420008093DA000895833091F10895C9D5882327
:1004300089F18091D40091E089278093D4008823AA
:1004400019F02BD0B9D5089526D0B2D5089561D032
:10045000882311F036DF0895B3D5882311F00ADE22
:1004600008958091D9008823A9F08091D800811146
:1004700011C080917F019091D500981759F082E0CA
:100480008093DA0080917F018093D50008951ADE71
:1004900008954EDE0895C29A0895C2980895A4E082
:1004A000B0E0E4E5F2E05FC682B790E0B0E0A0E043
:1004B0009C01AD012C5C3F4F4F4F5F4F29833A8326
:1004C0004B835C83CA01B90128E630E040E050E08C
:1004D0001ED668BD89B7886089BF81E08093EB0034
:1004E000A8982496E2E05BC689B7877F89BFA89A5F
:1004F0001092EB000895EBEEF0E0108213A214A22C
:1005000015A21092330110923401EEDFC198C5DFBD
:10051000089520910F0190910E0181E0291301C0EF
:1005200080E00895ABEEB0E09496EC919497F0E003
:10053000E551FF4F838194962C91949730E02F5F83
:100540003F4F2F71332794962C930895982F9295AF
:100550009F709827892F869586958927982F96953D
:1005600089278170089589B7806189BF0895209196
:10057000330130E02F5F3F4F2F713327922F40918F
:1005800034014917E1F3E0913301F0E0E551FF4F09
:1005900080A720933301E7DF089589B78F7E89BF55
:1005A0000895882311F0C1980895C19A08951F9263
:1005B0000F920FB60F9211242F933F934F935F9397
:1005C0006F937F938F939F93AF93BF93EF93FF931B
:1005D00080911001811130C09091340180913301DC
:1005E0009817C9F0E0913401F0E0E551FF4F80A584
:1005F0008093110181E0809310018091340190E09B
:1006000001968F71992780933401809111019EDFAB
:1006100080931201CDD4FF91EF91BF91AF919F9143
:100620008F917F916F915F914F913F912F910F909B
:100630000FBE0F901F901895809110018F5F8093CF
:100640001001809110018B3001F178F48230D1F0EB
:100650008350883000F7809111018170A2DF809172
:100660001101869580931101D6CF8C30A1F6C198E7
:100670009091340180913301981301C08EDF109264
:100680001001C9CF80E08DDFC6CF80911201FBCF72
:100690001F920F920FB60F9211242F933F934F93F7
:1006A0005F936F937F938F939F93AF93BF93EF93DA
:1006B000FF938091EB008823B1F08091EB008F5F76
:1006C0008093EB008091EB008B30E9F1E8F482300D
:1006D00081F18350883038F48091EC0086958093C6
:1006E000EC00B0992AC0FF91EF91BF91AF919F911B
:1006F0008F917F916F915F914F913F912F910F90CB
:100700000FBE0F901F9018958C3069F7B09B13C0E7
:10071000E0910E01F0E08091EC00E551FF4F838302
:1007200080910E0190E001968F71992780930E01C0
:1007300002C0B09BD8CFD8DED6CF8091EC008068C5
:100740008093EC00D0CF8091EC0000DF96B39170E5
:10075000891749F2F0CFA4E0B0E0E0EBF3E003C585
:100760008FB590E0B0E0A0E09C01AD012C5C3F4F64
:100770004F4F5F4F29833A834B835C83CA01B90192
:1007800028E630E040E050E0C2D46EBD89B7806416
:1007900089BF81E080933501AB982496E2E0FFC4E5
:1007A00089B78F7B89BFAB9A10923501089520914C
:1007B00059019091580181E0291301C080E008950A
:1007C000A5E3B1E09496EC919497F0E0EB5CFE4FDA
:1007D000838194962C91949730E02F5F3F4F2F7137
:1007E000332794962C93089520917D0130E02F5F5C
:1007F0003F4F2F713327922F40917E014917E1F32C
:10080000E0917D01F0E0EB5CFE4F80A720937D013D
:10081000089589B7806289BF0895E5E3F1E0108209
:1008200013A214A215A210927D0110927E01B8DFCE
:10083000C49AEFDF0895882311F0C49A0895C498EC
:1008400008951F920F920FB60F9211242F933F938A
:100850004F935F936F937F938F939F93AF93BF93C8
:10086000EF93FF9380913501882369F080913501E2
:100870008F5F80933501809135018B30A8F48330F0
:1008800068F5823039F1FF91EF91BF91AF919F915F
:100890008F917F916F915F914F913F912F910F9029
:1008A0000FBE0F901F9018958B50823060F7B39B4E
:1008B00013C0E0915801F0E080913601EB5CFE4FEF
:1008C00083838091580190E001968F7199278093DE
:1008D000580102C0B39BD7CF63DFD5CF80913601DB
:1008E000869580933601B39BCECF80913601806888
:1008F00080933601C8CF1F920F920FB60F9211242A
:100900002F933F934F935F936F937F938F939F9317
:10091000AF93BF93EF93FF9380915A01811158C019
:1009200090917E0180917D01981799F0E0917E0170
:10093000F0E0EB5CFE4F80A580935B0181E080934B
:100940005A0180917E0190E001968F7199278093E2
:100950007E0180918301882329F080918301815059
:1009600080938301809182018F5F809382018091C7
:1009700082018036E1F410928201809181018F5FC3
:10098000809381019091810180918001981303C02F
:1009900088EC8093800180918101843641F48091BC
:1009A0007F0191E0892780937F0110928101FF915F
:1009B000EF91BF91AF919F918F917F916F915F91D7
:1009C0004F913F912F910F900FBE0F901F90189550
:1009D00080915A018F5F80935A0180915A018B3028
:1009E00040F4833070F4823009F0B3CF80E023DF2D
:1009F000B0CF8B50823008F0ACCFC49A10925A011D
:100A0000A8CF80915B01817016DF80915B01869594
:100A100080935B019ECFE6E7F0E0648170E0868121
:100A200097814ED36F5F638308951092E90010920F
:100A3000E8001092E7001092E0000895809176009F
:100A4000813019F0823019F00895A2D20895A8D209
:100A50000895B0E0A0E0EEE2F5E07FC38C018EE700
:100A6000C3DE8FEFC1DE7801680185E0C80ED11CBE
:100A7000CFEFD0E0F70181917F01B6DEF70131972A
:100A80008081C80FD11DEC14FD04A1F7D195C1954B
:100A9000D1098D2FA9DE8C2FA7DE8FEEA5DEF80100
:100AA000818181118093EA00CDB7DEB7E8E071C3A0
:100AB00080917600813019F0823019F0089558D273
:100AC00008955ED208958091770080FF05C081E08F
:100AD00080937600EDDF089581FFFCCF82E0F8CFB0
:100AE00081E08093DD008091810190E00A9664E6C8
:100AF00070E0FAD28F5F80938001089581E0809347
:100B0000DE008091810190E0449664E670E0ECD2D2
:100B10008F5F80938001089581E08093DC00809155
:100B2000810190E0805B9F4F68EC70E0DDD28F5FC9
:100B300080938001089581E0809376008093700017
:100B40008CE690E086DF089582E0809376008093C3
:100B500070008CE690E07DDF089581EC90E079DF15
:100B600008958CEB90E075DF089580917C00909162
:100B70007D00209178002D30B1F028F4293021F04B
:100B80002B7F213009F0019760917E0070917F00EA
:100B900097D2019690937D0080937C003CDF8BEC94
:100BA00090E057DF089520917E0020FD02C0CE9690
:100BB000EBCFCD96E9CF80917C0090917D00209184
:100BC00078002D30C1F028F4293099F02B7F2130A6
:100BD00081F0019760917E0070917F0071D2019643
:100BE00090937D0080937C0016DF86EC90E031DFEF
:100BF00008950297EFCF20917E0020FD03C080541E
:100C00009109E8CFCF97E6CF80917C0090917D004D
:100C1000982789279827909375008093740081E71F
:100C200090E017DF08958091790060917A0070E07C
:100C30008150990B28D2019690937D0080937C007F
:100C400020917E0030917F002817390740F481E021
:100C500090E090937D0080937C00809379000895CC
:100C6000809179008F5F8093790090917B00981735
:100C700018F481E080937900D6DFC6DF0895809173
:100C8000790081508093790090917B00882311F046
:100C9000981710F490937900C6DFB6DF089587EBBC
:100CA00090E0D7DE089582EB90E0D3DE089588EAE5
:100CB00090E0CFDE08958DEA90E0CBDE089583EAE0
:100CC00090E0C7DE089580917600813019F082307F
:100CD00039F008958093DF0084E990E0BADE08954A
:100CE00081E08093DF008FE890E0F8CF60DD88231B
:100CF00009F4F3C065DD9091E9009A3008F083C0F3
:100D0000E92FF0E0E15CF64F09948E3709F00AC153
:100D100081E08093E9001092E8001092E7000895C6
:100D20008F3F09F070C082E08093E9008091E70076
:100D30009091E80081509F4F9093E8008093E700E6
:100D40000895863009F05FC083E08093E9008091C8
:100D5000E7009091E80006969093E8008093E70002
:100D60001092E00008959F5F9093E9009091E00059
:100D7000E92FF0E0EF51FF4F80839F5F9093E000F9
:100D80002091E7003091E800820F932F911DD4CF7E
:100D90002091E7003091E800319521953109309399
:100DA000E8002093E70083132EC088E08093E900D9
:100DB00008959091E700981326C089E0F7CF8F3E01
:100DC00011F5E091E100EA53E331E8F4F0E0E75B8C
:100DD000F64F09949091E40090937600809177000B
:100DE000892B8093770064DE97DE0DC08091E4004C
:100DF0008095909177008923809377009091760079
:100E0000892309F460DE11DE089581E08093760085
:100E100067DEF9CF82E0FACF8091E400882399F36E
:100E20008093770050DEE0CF8091E3009091E40062
:100E30009827892798272091E3003091E400232BFD
:100E4000C1F090937D0080937C00E5DD8091DF0010
:100E50008823F1F21092DF00F1DDD5CF8091EA0016
:100E6000823461F080F68D3021F028F48150833097
:100E700050F644DEC8CF8F33E1F3C5CF8091E30055
:100E8000809376008091E4008111BDCFC1CF809125
:100E9000E300882309F4A8CF8091E3009091E40057
:100EA0009827892798272091E400222309F49CCFD2
:100EB00090937F0080937E00813326E0920758F064
:100EC00020E220937A0060917A0070E0F9D06F5FA1
:100ED00060937B00C1CF20E1F4CF80918001883CFA
:100EE00009F58091DB008823F1F01092DB0023DE0E
:100EF0008091DB0081110CC08091DC00811108C061
:100F00008091DE00811104C08091DD00882371F1A1
:100F10008091810190E00A9664E670E0E5D08F5FF1
:100F20008093800108958091DC00882379F01092ED
:100F3000DC0080917600813029F08230C9F689E9A1
:100F400090E002C08EE990E084DDD2CF8091DE0097
:100F5000882321F01092DE00B6DECACF8091DD003A
:100F6000882331F21092DD0000DEC2CF89ECD8CFA9
:100F70004AE050E06AE070E086E790E03DD10895F5
:100F80004AE050E060E070E086E790E035D10895F7
:100F90004AE050E06AE070E086E790E03DD10895D5
:100FA0004AE050E060E070E086E790E035D10895D7
:100FB0008AE68093830108958FE0809383010895EA
:100FC0009091830181E0911180E0089580E886BDD1
:100FD00016BC87B3866187BBC49A89E085BB80E273
:100FE0008ABF8BBF8AB582608ABD82E083BF88E6F4
:100FF00089BD94E890BF1BBC8DBD0FDC7CDA789472
:101000000895F894A89584B7877F84BF88E181BD4F
:1010100089ED81BD789408951F920F920FB60F92BB
:1010200011242F933F934F935F936F937F938F93ED
:101030009F93AF93BF93EF93FF93A89B06C08091BC
:10104000EB00811102C0B09B2ADAAB9B06C08091F5
:101050003501811102C0B39B7EDBFF91EF91BF91FF
:10106000AF919F918F917F916F915F914F913F9140
:101070002F910F900FBE0F901F901895A7DF18DDCE
:1010800035DEC0D9FDCF0024552704C0080E591FF6
:10109000880F991F009729F076956795B8F3710529
:1010A000B9F7802D952F0895991B79E004C0991FF9
:1010B000961708F0961B881F7A95C9F780950895B2
:1010C000AA1BBB1B51E107C0AA1FBB1FA617B7076E
:1010D00010F0A61BB70B881F991F5A95A9F780958A
:1010E0009095BC01CD01089597FB072E16F400944E
:1010F00006D077FD08D0E4DF07FC05D03EF49095DC
:1011000081959F4F0895709561957F4F0895052EA5
:1011100097FB16F400940FD057FD05D04BD007FC79
:1011200002D046F408C050954095309521953F4F28
:101130004F4F5F4F089590958095709561957F4FC3
:101140008F4F9F4F08952F923F924F925F926F92D1
:101150007F928F929F92AF92BF92CF92DF92EF9247
:10116000FF920F931F93CF93DF93CDB7DEB7CA1BC8
:10117000DB0B0FB6F894DEBF0FBECDBF09942A88F3
:10118000398848885F846E847D848C849B84AA849B
:10119000B984C884DF80EE80FD800C811B81AA8128
:1011A000B981CE0FD11D0FB6F894DEBF0FBECDBFF3
:1011B000ED010895A1E21A2EAA1BBB1BFD010DC073
:1011C000AA1FBB1FEE1FFF1FA217B307E407F507F7
:1011D00020F0A21BB30BE40BF50B661F771F881FD3
:1011E000991F1A9469F760957095809590959B0169
:1011F000AC01BD01CF010895DC01CB01FC01E199F7
:10120000FECF06C0FFBBEEBBE09A31960DB20D9249
:1012100041505040B8F70895DC01A40FB51F41506C
:10122000504040F0CB01840F951F2E9105D04150C6
:101230005040D8F70895262FE199FECF9FBB8EBB73
:10124000E09A01970DB2021639F01CBA2DBB0FB609
:10125000F894E29AE19A0FBE0895F894FFCF89C8F6
:101260004BC88DC88FC890C892C894C896C892C8F9
:1012700043C896C898C89AC89FC8A4C8A9C845CDED
:101280004FCD5FCD70CD6FCD6ECD6DCD81CD91CD7C
:1012900096CDA0CDABCDB9CDBDCDB5CDBDCDB3CD6A
:1012A000DDCDB1CDB0CDAFCDAECDADCDF0CDEFCDAF
:0812B000AACDA9CDB9CDB8CD3E
:1012B800332201353031303130303030063F0100D3
:1012C8000106030100000101010110630100B70BD1
:1012D800332A00313F802001003100002000000641
:1012E8004C010000064B01000006480100000647BB
:1012F800010000064201000006190100000618015D
:10130800000006110100000611010001060E01008F
:1013180000060D01000006020100000601010000A0
:02132800300093
:00000001FF
