:100000000EC028C0AFC71AC425C024C023C022C058
:1000100021C06EC4CBC23BC31DC01CC01BC0112479
:100020001FBECFE5D2E0DEBFCDBF10E0A0E6B0E05E
:10003000E4E0F2E102C005900D92A43CB107D9F7CB
:1000400021E0A4ECB0E001C01D92A533B207E1F7B6
:10005000BBD7A9C8D5CF86E089D2089584E086D2DF
:10006000089582E083D2089583E080D2089580E1EC
:100070007DD2089543D71092CA0081E08093CC00CE
:100080000895FF920F931F93CF93DF93F82E192FAC
:10009000062FE7DFCF2DD12F0C0F1D2F111DF12CB7
:1000A000C017D10741F4E0DF83E08F255FD2CDB7E1
:1000B000DEB7E5E017C8899159D2FE0131978081FA
:1000C000F826EECF8091C5008130A1F0823009F191
:1000D000811105C0E1D112D781E08093C50016D708
:1000E000882339F00BD71092C50081E08093CC00B3
:1000F000D5D108950DD2882391F313D2863079F7A4
:10010000FDD682E08093C50061E081EC90E0B9DF2C
:10011000E6CFFED1882319F304D2863001F7EED65C
:100120001092C50081E08093CC00B8D197DFD7CF83
:100130008091C4008130C1F1823009F44DC0811139
:1001400054C0809171002AE0622F54D7805D809363
:100150006400905D90936500809174004BD7805D42
:1001600080936600905D90936700809177009091F6
:10017000780064E670E04AD7382F862F622F3AD78E
:10018000805D80936800905D90936900832F32D7E3
:10019000805D80936A00905D90936B007DD1AED6B8
:1001A00081E08093C4000895B3D1882351F0B9D180
:1001B0008630D9F4A3D669E083E690E062DF82E07E
:1001C000F0CFA4D6882389F069D198D61092C400C4
:1001D00081E08093CC0008959BD1882391F3A1D135
:1001E000863091F75BD13ADFEFCF0895FF920F93FE
:1001F0001F93CF93DF93F82E192F062F38DF31DFAF
:10020000CF2DD12F0C0F1D2F111DF12CC017D10791
:1002100049F42DDF29DF83E18F25A8D1CDB7DEB7E3
:10022000E5E060C78991A2D1FE0131978081F8266F
:10023000EDCF66E08EE790E0D9DF089566E084E8D0
:1002400090E0D4DF089580E28093610063E080E66F
:1002500090E0CCDF0895E0E6F0E082E281838091D7
:100260007300828363E0CF01C1DF0895F4DF089556
:10027000F2DF089563E08BE790E0B8DF0895FADFDE
:10028000089586E28093610063E080E690E0AEDF4F
:10029000089587E28093610063E080E690E0A6DF46
:1002A000089584E28093610063E080E690E09EDF41
:1002B000089585E28093610063E080E690E096DF38
:1002C0000895CF932ED19091CA00923059F170F4D5
:1002D000911114C0823081F481E08093CA001092A1
:1002E000C9001092C8000AD6CF910895933009F43E
:1002F00084C0943009F473C0BDDEF6CF9091C9007C
:1003000098279093C900833021F482E08093CA003B
:10031000EACF9091C8009295907F8F70892B80933F
:10032000C800E1CF9091C9009813E6CF83E0809395
:10033000CA00E4D5C091C800C037F0F6C03658F402
:10034000C13089F0C23099F0C111D6CF84DE84E08B
:100350008093CA00C9CFC056C03170F6EC2FF0E0D0
:10036000EB52F74F099465DFC093CB00BDCF66DF3A
:10037000BBCF81E0809373006EDFCBD3B5CF63DF5B
:10038000CCD3B2CF8EDFCDD3AFCF93DFF0D3ACCF12
:1003900078DF33D4A9CF5FDF5EDFA6CF7ADF3CD42E
:1003A000A3CF68DFADD3F8CF65DFA1D3F5CF85E06C
:1003B0008093730050DF40D497CF89E0809373001F
:1003C0004ADF42D491CF8DE08093730044DF40D464
:1003D0008BCF81E0809373003EDF32D485CF8430B1
:1003E00009F08ACF8BD58091C80081117DCF109202
:1003F000CA0083E08093CC0077CF863009F07CCFB1
:100400007DD52CDE79CF8091CC00823009F442C0BA
:1004100058F481111DC07CD0882349F03FD06ED59F
:1004200081E08093CC000895833091F108956ED5DA
:10043000882389F18091C60091E089278093C600C6
:10044000882319F02BD05ED5089526D057D508956E
:100450005FD0882311F035DF089558D5882311F037
:1004600009DE08958091CB008823A9F08091CA000D
:10047000811111C0809130019091C700981759F0F7
:1004800082E08093CC00809130018093C700089572
:1004900019DE08954DDE0895C29A0895C298089510
:1004A000A4E0B0E0E5E5F2E004C682B790E0B0E099
:1004B000A0E09C01AD012C5C3F4F4F4F5F4F298363
:1004C0003A834B835C83CA01B90128E630E040E0FF
:1004D00050E0C3D568BD89B7886089BF81E080934B
:1004E000DC00A8982496E2E000C689B7877F89BF20
:1004F000A89A1092DC000895ECEDF0E01082138AC7
:10050000148A158A10A611A6F0DFC198C7DF0895D6
:100510002091F0009091EF0081E0291301C080E06C
:100520000895ACEDB0E05496EC915497F0E0E452AD
:10053000FF4F838154962C91549730E02F5F3F4FAB
:100540002F70332754962C930895982F92959F706F
:100550009827892F869586958927982F969589279C
:100560008170089589B7806189BF08952091040141
:1005700030E02F5F3F4F2F703327922F40910501BE
:100580004917E1F3E0910401F0E0E452FF4F808F5E
:1005900020930401E7DF089589B78F7E89BF08950E
:1005A000882311F0C1980895C19A08951F920F925F
:1005B0000FB60F9211242F933F934F935F936F9336
:1005C0007F938F939F93AF93BF93EF93FF9380910C
:1005D000F100811130C090910501809104019817BC
:1005E000C9F0E0910501F0E0E452FF4F808D809367
:1005F000F20081E08093F1008091050190E0019686
:100600008F709927809305018091F2009EDF80937F
:10061000F30074D4FF91EF91BF91AF919F918F91AF
:100620007F916F915F914F913F912F910F900FBEEE
:100630000F901F9018958091F1008F5F8093F100CB
:100640008091F1008B3001F178F48230D1F0835049
:10065000883000F78091F2008170A2DF8091F20073
:1006600086958093F200D6CF8C30A1F6C1989091F8
:10067000050180910401981301C08EDF1092F100F2
:10068000C9CF80E08DDFC6CF8091F300FBCF1F92F2
:100690000F920FB60F9211242F933F934F935F93B6
:1006A0006F937F938F939F93AF93BF93EF93FF933A
:1006B0008091DC008823B1F08091DC008F5F809313
:1006C000DC008091DC008B30E9F1E8F4823081F1CC
:1006D0008350883038F48091DD0086958093DD006A
:1006E000B0992AC0FF91EF91BF91AF919F918F91E7
:1006F0007F916F915F914F913F912F910F900FBE1E
:100700000F901F9018958C3069F7B09B13C0E09143
:10071000EF00F0E08091DD00E452FF4F8383809191
:10072000EF0090E001968F7099278093EF0002C050
:10073000B09BD8CFDADED6CF8091DD008068809381
:10074000DD00D0CF8091DD0000DF96B39170891776
:1007500049F2F0CFA4E0B0E0EFEAF3E0AAC48FB52D
:1007600090E0B0E0A0E09C01AD012C5C3F4F4F4F0A
:100770005F4F29833A834B835C83CA01B90128E622
:1007800030E040E050E069D46EBD89B7806489BF35
:1007900081E080930601AB982496E2E0A6C489B775
:1007A0008F7B89BFAB9A10920601089520911A01A0
:1007B0009091190181E0291301C080E00895A6E01D
:1007C000B1E05496EC915497F0E0EA5FFE4F8381DC
:1007D00054962C91549730E02F5F3F4F2F70332762
:1007E00054962C93089520912E0130E02F5F3F4FB7
:1007F0002F703327922F40912F014917E1F3E09199
:100800002E01F0E0EA5FFE4F808F20932E010895C5
:1008100089B7806289BF0895E6E0F1E01082138A0B
:10082000148A158A10A611A6BADFC49AF1DF0895BA
:10083000882311F0C49A0895C49808951F920F92C6
:100840000FB60F9211242F933F934F935F936F93A3
:100850007F938F939F93AF93BF93EF93FF93809179
:100860000601882369F0809106018F5F809306015D
:10087000809106018B30A8F4833068F5823039F11D
:10088000FF91EF91BF91AF919F918F917F916F9168
:100890005F914F913F912F910F900FBE0F901F903E
:1008A00018958B50823060F7B39B13C0E09119010B
:1008B000F0E080910701EA5FFE4F83838091190188
:1008C00090E001968F7099278093190102C0B39B25
:1008D000D7CF65DFD5CF809107018695809307013B
:1008E000B39BCECF80910701806880930701C8CF6A
:1008F0001F920F920FB60F9211242F933F934F9395
:100900005F936F937F938F939F93AF93BF93EF9377
:10091000FF9380911B01811158C090912F0180910C
:100920002E01981799F0E0912F01F0E0EA5FFE4F59
:10093000808D80931C0181E080931B0180912F01A9
:1009400090E001968F70992780932F018091340158
:10095000882329F080913401815080933401809163
:1009600033018F5F80933301809133018036E1F44E
:1009700010923301809132018F5F80933201909108
:10098000320180913101981303C088EC80933101CA
:1009900080913201843641F48091300191E08927C1
:1009A0008093300110923201FF91EF91BF91AF918E
:1009B0009F918F917F916F915F914F913F912F9177
:1009C0000F900FBE0F901F90189580911B018F5FA5
:1009D00080931B0180911B018B3040F4833070F4B5
:1009E000823009F0B3CF80E023DFB0CF8B5082306C
:1009F00008F0ACCFC49A10921B01A8CF80911C01C3
:100A0000817016DF80911C01869580931C019ECF1A
:100A1000E1E7F0E0648170E086819781F7D26F5F53
:100A2000638308951092DA001092D9001092D800D2
:100A30001092D1000895B0E0A0E0E0E2F5E033C309
:100A40008C018EE7D0DE8FEFCEDE7801680185E085
:100A5000C80ED11CCFEFD0E0F70181917F01C3DE3A
:100A6000F70131978081C80FD11DEC14FD04A1F767
:100A7000D195C195D1098D2FB6DE8C2FB4DE8FEEC6
:100A8000B2DEF801818181118093DB00CDB7DEB742
:100A9000E8E025C323D2089581E08093CF008091C0
:100AA000320190E00A9664E670E0C4D28F5F8093D2
:100AB0003101089581E08093D0008091320190E06F
:100AC000449664E670E0B6D28F5F8093310108955A
:100AD00081E08093CE008091320190E0805B9F4F57
:100AE00068EC70E0A7D28F5F80933101089581E0B8
:100AF00080937100809370008CE690E09CDF0895F5
:100B000082E080937100809370008CE690E093DF28
:100B1000089582EB90E08FDF08958DEA90E08BDFFF
:100B200008958091770090917800209173002D3086
:100B3000B1F028F4293021F02B7F213009F0019702
:100B40006091790070917A0061D20196909378005B
:100B5000809377005DDF8CEB90E06DDF089520914E
:100B6000790020FD02C0CE96EBCFCD96E9CF8091E3
:100B7000770090917800209173002D30C1F028F417
:100B8000293099F02B7F213081F001976091790015
:100B900070917A003BD20196909378008093770011
:100BA00037DF87EB90E047DF08950297EFCF209182
:100BB000790020FD03C080549109E8CFCF97E6CF9C
:100BC000809174006091750070E08150990B01D2A2
:100BD000019690937800809377002091790030916E
:100BE0007A002817390740F481E090E0909378006C
:100BF00080937700809374000895809174008F5FD4
:100C00008093740090917600981718F481E0809397
:100C10007400D6DF86DF0895809174008150809340
:100C2000740090917600882311F0981710F4909337
:100C30007400C6DF9CDF089588EA90E0FCDE08952A
:100C400083EA90E0F8DE089589E990E0F4DE089503
:100C50008EE990E0F0DE089584E990E0ECDE0895FE
:100C60008AE890E0E8DE0895A1DD882309F4F4C065
:100C7000A6DD9091DA009A3008F086C0E92FF0E006
:100C8000EB51F74F09948E3709F0FFC081E0809354
:100C9000DA001092D9001092D80008958F3F09F021
:100CA00073C082E08093DA008091D8009091D900DF
:100CB00081509F4F9093D9008093D800089586303B
:100CC00009F062C083E08093DA008091D8009091AF
:100CD000D90006969093D9008093D8001092D10045
:100CE00008959F5F9093DA009091D100E92FF0E092
:100CF000EE52FF4F80839F5F9093D1002091D800E8
:100D00003091D900820F932F911DD4CF2091D8001C
:100D10003091D9003195219531093093D900209334
:100D2000D800831331C088E08093DA000895909151
:100D3000D800981329C089E0F7CF8F3E29F5E091BC
:100D4000D200EA53E33100F5F0E0E151F74F0994A6
:100D50009091D5009093710080917200892B8093BF
:100D60007200BCD0B5DE10C08091D5008095909106
:100D7000720089238093720090917100892321F47D
:100D800081E080937100AAD04DDE089581E08093C8
:100D9000710082DEF9CF82E0FACF8091D5008823FE
:100DA00099F38093720081E080937100DACF809193
:100DB000D4008823E9F08091D4009091D500982741
:100DC000892798272091D500222391F090937800CD
:100DD000809377001DDE8AD0D7CF8091DB008234EC
:100DE00061F090F68D3021F028F48150833060F668
:100DF00061DECACF8F33E1F3C7CF8091D4008093F7
:100E000071008091D5008111BFCFC3CF8091D400F4
:100E1000882309F4A7CF8091D4009091D50098271A
:100E2000892798272091D500222309F49BCF9093FE
:100E30007A0080937900813326E0920758F020E20F
:100E4000209375006091750070E0E0D06F5F609353
:100E50007600C1CF20E1F4CF80913101883CA9F424
:100E60008091CD00882391F01092CD0040DE8091DA
:100E7000CD00882329F18091320190E00A9664E642
:100E800070E0D8D08F5F8093310108958091CE00BB
:100E9000882331F01092CE008FE890E0CCDDE7CFD0
:100EA0008091D000882321F01092D000D9DEDFCFCE
:100EB0008091CF00882341F01092CF0032DED7CF4F
:100EC0008091CE008111D7CF8091D0008111D3CFF6
:100ED0008091CF008111CFCF89ECD5CF4AE050E08F
:100EE00060E070E081E790E02DD108954AE050E0A5
:100EF00060E070E081E790E035D108958AE6809364
:100F0000340108958FE08093340108959091340165
:100F100081E0911180E0089580E886BD16BC87B31A
:100F2000866187BBC49A89E085BB80E28ABF8BBF9C
:100F30008AB582608ABD82E083BF88E689BD94E875
:100F400090BF1BBC8DBD68DCD7DA78940895F89407
:100F5000A89584B7877F84BF88E181BD89ED81BD75
:100F6000789408951F920F920FB60F9211242F9329
:100F70003F934F935F936F937F938F939F93AF9321
:100F8000BF93EF93FF93A89B06C08091DC00811173
:100F900002C0B09B85DAAB9B06C08091060181112F
:100FA00002C0B39BD7DBFF91EF91BF91AF919F91AF
:100FB0008F917F916F915F914F913F912F910F9002
:100FC0000FBE0F901F901895A7DF64DD4DDE1BDA72
:100FD000FDCF0024552704C0080E591F880F991F04
:100FE000009729F076956795B8F37105B9F7802DCC
:100FF000952F0895991B79E004C0991F961708F062
:10100000961B881F7A95C9F780950895AA1BBB1B6C
:1010100051E107C0AA1FBB1FA617B70710F0A61BF8
:10102000B70B881F991F5A95A9F780959095BC0119
:10103000CD01089597FB072E16F4009406D077FD96
:1010400008D0E4DF07FC05D03EF4909581959F4FD2
:101050000895709561957F4F0895052E97FB16F4BE
:1010600000940FD057FD05D04BD007FC02D046F4BA
:1010700008C050954095309521953F4F4F4F5F4F99
:10108000089590958095709561957F4F8F4F9F4FF4
:1010900008952F923F924F925F926F927F928F921C
:1010A0009F92AF92BF92CF92DF92EF92FF920F93F7
:1010B0001F93CF93DF93CDB7DEB7CA1BDB0B0FB601
:1010C000F894DEBF0FBECDBF09942A8839884888BE
:1010D0005F846E847D848C849B84AA84B984C88454
:1010E000DF80EE80FD800C811B81AA81B981CE0F4B
:1010F000D11D0FB6F894DEBF0FBECDBFED01089530
:10110000A1E21A2EAA1BBB1BFD010DC0AA1FBB1F0B
:10111000EE1FFF1FA217B307E407F50720F0A21B7D
:10112000B30BE40BF50B661F771F881F991F1A94EA
:1011300069F760957095809590959B01AC01BD0114
:10114000CF010895DC01CB01FC01E199FECF06C07F
:10115000FFBBEEBBE09A31960DB20D92415050406C
:10116000B8F70895DC01A40FB51F4150504040F07E
:10117000CB01840F951F2E9105D041505040D8F7D8
:101180000895262FE199FECF9FBB8EBBE09A019771
:101190000DB2021639F01CBA2DBB0FB6F894E29AC4
:1011A000E19A0FBE0895F894FFCFE3C8A5C8E7C839
:1011B000E9C8EBC8EDC8EFC8F1C8EDC89DC8F1C8D3
:1011C000F3C8F5C8FAC8FFC804C95DCD67CD77CDAF
:1011D00088CD87CD86CD85CD99CDA9CDAECDB8CDE5
:1011E000C3CDD4CDD8CDD0CDD8CDCECDF6CDCCCDF0
:1011F000CBCDCACDC9CDC8CD09CE08CEC5CDC4CDC5
:04120000D6CDD5CDA5
:10120400332201353031303130303030063F000088
:10121400010101010310632100B70B332A00313FA0
:1012240080200100310000200000064B0000000671
:1012340047000000064200000006190000000618DE
:1012440001000006110100000611010001060E0153
:101254000000060D01000006020100000601010065
:041264000030000056
:00000001FF
