:100000000EC028C09CC710C425C024C023C022C075
:1000100021C064C4BFC22FC31DC01CC01BC011249B
:100020001FBECFE5D2E0DEBFCDBF10E0A0E6B0E05E
:10003000EEEDF1E102C005900D92A63AB107D9F7B5
:1000400021E0A6EAB0E001C01D92A735B207E1F7B2
:10005000A8D796C8D5CF86E07DD2089584E07AD21D
:10006000089582E077D2089583E074D2089580E104
:1000700071D2089530D71092AC0081E08093AE0029
:100080000895FF920F931F93CF93DF93F82E192FAC
:10009000062FE7DFCF2DD12F0C0F1D2F111DF12CB7
:1000A000C017D10741F4E0DF83E08F2553D2CDB7ED
:1000B000DEB7E5E004C889914DD2FE013197808119
:1000C000F826EECF8091A7008130A1F0823009F1AF
:1000D000811105C0D3D1FFD681E08093A70003D75B
:1000E000882339F0F8D61092A70081E08093AE0003
:1000F000C7D1089501D2882391F307D2863079F7CA
:10010000EAD682E08093A70061E083EA90E0B9DF5D
:10011000E6CFF2D1882319F3F8D1863001F7DBD688
:100120001092A70081E08093AE00AAD197DFD7CFCD
:100130008091A6008130C1F1823009F44DC0811157
:1001400054C0809176002AE0622F41D7805D809371
:100150006400905D909365008091790038D7805D50
:1001600080936600905D9093670080917C009091F1
:100170007D0064E670E037D7382F862F622F27D7AF
:10018000805D80936800905D90936900832F1FD7F6
:10019000805D80936A00905D90936B006FD19BD6D9
:1001A00081E08093A6000895A7D1882351F0ADD1B6
:1001B0008630D9F490D669E083E690E062DF82E091
:1001C000F0CF91D6882389F05BD185D61092A60016
:1001D00081E08093AE0008958FD1882391F395D16B
:1001E000863091F74DD13ADFEFCF0895FF920F930C
:1001F0001F93CF93DF93F82E192F062F38DF31DFAF
:10020000CF2DD12F0C0F1D2F111DF12CC017D10791
:1002100049F42DDF29DF83E18F259CD1CDB7DEB7EF
:10022000E5E04DC7899196D1FE0131978081F8268E
:10023000EDCF66E083E890E0D9DF089566E089E8D5
:1002400090E0D4DF089580E28093610063E080E66F
:1002500090E0CCDF0895E0E6F0E082E281838091D7
:100260007800828363E0CF01C1DF0895F4DF089551
:10027000F2DF089563E080E890E0B8DF0895FADFE8
:10028000089586E28093610063E080E690E0AEDF4F
:10029000089587E28093610063E080E690E0A6DF46
:1002A000089584E28093610063E080E690E09EDF41
:1002B000089585E28093610063E080E690E096DF38
:1002C0000895CF9322D19091AC00923059F170F4FF
:1002D000911114C0823081F481E08093AC001092BF
:1002E000AB001092AA00F7D5CF910895933009F48E
:1002F00076C0943009F465C0BDDEF6CF9091AB00B6
:1003000098279093AB00833021F482E08093AC0077
:10031000EACF9091AA009295907F8F70892B80935D
:10032000AA00E1CF9091AB009813E6CF83E08093D1
:10033000AC00D1D5C091AA00C037F0F6C03658F451
:10034000C13089F0C23099F0C111D6CF84DE84E08B
:100350008093AC00C9CFC056C03170F6EC2FF0E0EE
:10036000EE53F74F099465DFC093AD00BDCF66DF54
:10037000BBCF81E0809378006EDFC5D3B5CF63DF5C
:10038000BED3B2CF8EDFCED3AFCF93DFEFD3ACCF20
:1003900078DF30D4A9CF5FDF5EDFA6CF7ADF39D434
:1003A000A3CF68DFA3D3F8CF65DF97D3F5CF85E080
:1003B00080937800F1CF89E0FBCF8DE0F9CF81E029
:1003C000F7CF843009F098CF86D58091AA008111AB
:1003D0008BCF1092AC0083E08093AE0085CF863047
:1003E00009F08ACF78D53ADE87CF8091AE0082308F
:1003F00009F442C058F481111DC07ED0882349F011
:100400003FD069D581E08093AE000895833091F1AB
:10041000089569D5882389F18091A80091E0892702
:100420008093A800882319F02BD059D5089526D0A1
:1004300052D5089561D0882311F043DF089553D534
:10044000882311F017DE08958091AD008823A9F06C
:100450008091AC00811111C0809152019091A9004E
:10046000981759F082E08093AE00809152018093FA
:10047000A900089527DE08955BDE0895C29A0895C5
:10048000C2980895A4E0B0E0E7E4F2E0FFC582B7C7
:1004900090E0B0E0A0E09C01AD012C5C3F4F4F4FDD
:1004A0005F4F29833A834B835C83CA01B90128E6F5
:1004B00030E040E050E0BED568BD89B7886089BFB4
:1004C00081E08093BE00A8982496E2E0FBC589B73E
:1004D000877F89BFA89A1092BE000895EEEBF0E0E6
:1004E000108213A214A215A2109206011092070105
:1004F000EEDFC198C5DF08952091E2009091E10000
:1005000081E0291301C080E00895AEEBB0E094963D
:10051000EC919497F0E0E254FF4F838194962C91F4
:10052000949730E02F5F3F4F2F71332794962C9391
:100530000895982F92959F709827892F8695869574
:100540008927982F969589278170089589B78061AA
:1005500089BF08952091060130E02F5F3F4F2F7132
:100560003327922F409107014917E1F3E0910601EB
:10057000F0E0E254FF4F80A720930601E7DF0895E3
:1005800089B78F7E89BF0895882311F0C198089597
:10059000C19A08951F920F920FB60F9211242F93B4
:1005A0003F934F935F936F937F938F939F93AF93FB
:1005B000BF93EF93FF938091E300811130C090913E
:1005C0000701809106019817C9F0E0910701F0E05A
:1005D000E254FF4F80A58093E40081E08093E30024
:1005E0008091070190E001968F7199278093070110
:1005F0008091E4009EDF8093E5006DD4FF91EF9140
:10060000BF91AF919F918F917F916F915F914F912A
:100610003F912F910F900FBE0F901F9018958091D2
:10062000E3008F5F8093E3008091E3008B3001F162
:1006300078F48230D1F08350883000F78091E40064
:100640008170A2DF8091E40086958093E400D6CF8C
:100650008C30A1F6C1989091070180910601981302
:1006600001C08EDF1092E300C9CF80E08DDFC6CFDE
:100670008091E500FBCF1F920F920FB60F921124CD
:100680002F933F934F935F936F937F938F939F939A
:10069000AF93BF93EF93FF938091BE008823B1F097
:1006A0008091BE008F5F8093BE008091BE008B3032
:1006B000E9F1E8F4823081F18350883038F4809198
:1006C000BF0086958093BF00B0992AC0FF91EF913B
:1006D000BF91AF919F918F917F916F915F914F915A
:1006E0003F912F910F900FBE0F901F9018958C3057
:1006F00069F7B09B13C0E091E100F0E08091BF008A
:10070000E254FF4F83838091E10090E001968F7166
:1007100099278093E10002C0B09BD8CFD8DED6CF16
:100720008091BF0080688093BF00D0CF8091BF00D0
:1007300000DF96B39170891749F2F0CFA4E0B0E0E2
:10074000E3EAF3E0A3C48FB590E0B0E0A0E09C0141
:10075000AD012C5C3F4F4F4F5F4F29833A834B8352
:100760005C83CA01B90128E630E040E050E062D481
:100770006EBD89B7806489BF81E080930801AB9822
:100780002496E2E09FC489B78F7B89BFAB9A109211
:100790000801089520912C0190912B0181E02913EB
:1007A00001C080E00895A8E0B1E09496EC919497A0
:1007B000F0E0E85FFE4F838194962C91949730E0AF
:1007C0002F5F3F4F2F71332794962C9308952091DC
:1007D000500130E02F5F3F4F2F713327922F409110
:1007E00051014917E1F3E0915001F0E0E85FFE4F5D
:1007F00080A720935001089589B7806289BF08952A
:10080000E8E0F1E0108213A214A215A210925001A8
:1008100010925101B8DFC49AEFDF0895882311F0D8
:10082000C49A0895C49808951F920F920FB60F921C
:1008300011242F933F934F935F936F937F938F93E5
:100840009F93AF93BF93EF93FF9380910801882309
:1008500069F0809108018F5F809308018091080101
:100860008B30A8F4833068F5823039F1FF91EF9135
:10087000BF91AF919F918F917F916F915F914F91B8
:100880003F912F910F900FBE0F901F9018958B5096
:10089000823060F7B39B13C0E0912B01F0E08091B0
:1008A0000901E85FFE4F838380912B0190E0019660
:1008B0008F71992780932B0102C0B39BD7CF63DF41
:1008C000D5CF80910901869580930901B39BCECF46
:1008D00080910901806880930901C8CF1F920F920F
:1008E0000FB60F9211242F933F934F935F936F9303
:1008F0007F938F939F93AF93BF93EF93FF938091D9
:100900002D01811158C0909151018091500198178B
:1009100099F0E0915101F0E0E85FFE4F80A58093EF
:100920002E0181E080932D018091510190E001968C
:100930008F7199278093510180915601882329F066
:1009400080915601815080935601809155018F5FAF
:1009500080935501809155018036E1F41092550144
:10096000809154018F5F8093540190915401809144
:100970005301981303C088EC809353018091540174
:10098000843641F48091520191E08927809352018D
:1009900010925401FF91EF91BF91AF919F918F9170
:1009A0007F916F915F914F913F912F910F900FBE6B
:1009B0000F901F90189580912D018F5F80932D01CE
:1009C00080912D018B3040F4833070F4823009F037
:1009D000B3CF80E023DFB0CF8B50823008F0ACCFB4
:1009E000C49A10922D01A8CF80912E01817016DF3C
:1009F00080912E01869580932E019ECFE6E7F0E050
:100A0000648170E086819781EED26F5F6383089581
:100A10001092BC001092BB001092BA001092B3006A
:100A20000895B0E0A0E0E6E1F5E02AC38C018EE78E
:100A3000CEDE8FEFCCDE7801680185E0C80ED11CD8
:100A4000CFEFD0E0F70181917F01C1DEF70131974F
:100A50008081C80FD11DEC14FD04A1F7D195C1957B
:100A6000D1098D2FB4DE8C2FB2DE8FEEB0DEF8010F
:100A7000818181118093BD00CDB7DEB7E8E01CC352
:100A80001AD2089581E08093B1008091540190E0E2
:100A90000A9664E670E0BBD28F5F8093530108959D
:100AA00081E08093B2008091540190E0449664E626
:100AB00070E0ADD28F5F80935301089581E0809301
:100AC000B0008091540190E0805B9F4F68EC70E033
:100AD0009ED28F5F80935301089581E080937600CA
:100AE000809370008CE690E09CDF089582E0809314
:100AF0007600809370008CE690E093DF08958EE995
:100B000090E08FDF089580917C0090917D00982780
:100B100089279827909375008093740081E790E06F
:100B200080DF089580917C0090917D002091780075
:100B30002D30A1F028F4293021F02B7F213009F04D
:100B4000019760917E0070917F004DD20196909345
:100B50007D0080937C0052DFD6DF089520917E00D7
:100B600020FD02C0CE96EDCFCD96EBCF80917C00DC
:100B700090917D00209178002D30B1F028F429303B
:100B800089F02B7F213071F0019760917E00709188
:100B90007F0029D2019690937D0080937C002EDF08
:100BA000B2DF08950297F1CF20917E0020FD03C0AF
:100BB00080549109EACFCF97E8CF80917900609176
:100BC0007A0070E08150990BF1D1019690937D00ED
:100BD00080937C0020917E0030917F002817390798
:100BE00040F481E090E090937D0080937C008093BE
:100BF00079000895809179008F5F809379009091BA
:100C00007B00981718F481E080937900D6DF7BDFB2
:100C100008958091790081508093790090917B00B4
:100C2000882311F0981710F490937900C6DF6BDFDA
:100C3000089589E990E0F5DE08958FE890E0F1DE0F
:100C40000895A8DD882309F4F4C0ADDD9091BC00BF
:100C50009A3008F086C0E92FF0E0EE52F74F099481
:100C60008E3709F0FFC081E08093BC001092BB007A
:100C70001092BA0008958F3F09F073C082E080930C
:100C8000BC008091BA009091BB0081509F4F90931F
:100C9000BB008093BA000895863009F062C083E0FB
:100CA0008093BC008091BA009091BB00069690930F
:100CB000BB008093BA001092B30008959F5F909399
:100CC000BC009091B300E92FF0E0EC54FF4F80831B
:100CD0009F5F9093B3002091BA003091BB00820FC8
:100CE000932F911DD4CF2091BA003091BB00319544
:100CF000219531093093BB002093BA00831331C092
:100D000088E08093BC0008959091BA00981329C0A0
:100D100089E0F7CF8F3E29F5E091B400EA53E33143
:100D200000F5F0E0E452F74F09949091B7009093EA
:100D3000760080917700892B80937700BCD0BEDE4F
:100D400010C08091B700809590917700892380939F
:100D5000770090917600892321F481E080937600DA
:100D6000AAD056DE089581E0809376008BDEF9CF1D
:100D700082E0FACF8091B700882399F380937700BF
:100D800081E080937600DACF8091B6008823E9F085
:100D90008091B6009091B7009827892798272091D5
:100DA000B700222391F090937D0080937C0026DE93
:100DB0008AD0D7CF8091BD00823461F090F68D301B
:100DC00021F028F48150833060F66ADECACF8F3379
:100DD000E1F3C7CF8091B600809376008091B70091
:100DE0008111BFCFC3CF8091B600882309F4A7CF6C
:100DF0008091B6009091B700982789279827209175
:100E0000B700222309F49BCF90937F0080937E004C
:100E1000813326E0920758F020E220937A00609117
:100E20007A0070E0E0D06F5F60937B00C1CF20E17B
:100E3000F4CF80915301883CA9F48091AF008823BE
:100E400091F01092AF0049DE8091AF00882329F124
:100E50008091540190E00A9664E670E0D8D08F5FEC
:100E60008093530108958091B000882331F010924F
:100E7000B00084E990E0D5DDE7CF8091B20088230F
:100E800021F01092B200D9DEDFCF8091B10088232B
:100E900041F01092B10046DED7CF8091B0008111B1
:100EA000D7CF8091B2008111D3CF8091B100811151
:100EB000CFCF89ECD5CF4AE050E060E070E086E724
:100EC00090E02DD108954AE050E060E070E086E7C0
:100ED00090E035D108958AE68093560108958FE019
:100EE0008093560108959091560181E0911180E020
:100EF000089580E886BD16BC87B3866187BBC49A17
:100F000089E085BB80E28ABF8BBF8AB582608ABDDB
:100F100082E083BF88E689BD94E890BF1BBC8DBD8D
:100F20006FDCDCDA78940895F894A89584B7877F0D
:100F300084BF88E181BD89ED81BD789408951F92B9
:100F40000F920FB60F9211242F933F934F935F93FD
:100F50006F937F938F939F93AF93BF93EF93FF9381
:100F6000A89B06C08091BE00811102C0B09B8ADAA6
:100F7000AB9B06C080910801811102C0B39BDEDBF0
:100F8000FF91EF91BF91AF919F918F917F916F9161
:100F90005F914F913F912F910F900FBE0F901F9037
:100FA0001895A7DF6DDD4DDE20DAFDCF0024552733
:100FB00004C0080E591F880F991F009729F07695D5
:100FC0006795B8F37105B9F7802D952F0895991B92
:100FD00079E004C0991F961708F0961B881F7A9530
:100FE000C9F780950895AA1BBB1B51E107C0AA1F32
:100FF000BB1FA617B70710F0A61BB70B881F991FBA
:101000005A95A9F780959095BC01CD01089597FB5D
:10101000072E16F4009406D077FD08D0E4DF07FC15
:1010200005D03EF4909581959F4F089570956195F8
:101030007F4F0895052E97FB16F400940FD057FDAF
:1010400005D04BD007FC02D046F408C0509540951F
:10105000309521953F4F4F4F5F4F08959095809564
:10106000709561957F4F8F4F9F4F08952F923F92BC
:101070004F925F926F927F928F929F92AF92BF92A8
:10108000CF92DF92EF92FF920F931F93CF93DF9354
:10109000CDB7DEB7CA1BDB0B0FB6F894DEBF0FBEB1
:1010A000CDBF09942A88398848885F846E847D84FE
:1010B0008C849B84AA84B984C884DF80EE80FD8000
:1010C0000C811B81AA81B981CE0FD11D0FB6F89476
:1010D000DEBF0FBECDBFED010895A1E21A2EAA1BFF
:1010E000BB1BFD010DC0AA1FBB1FEE1FFF1FA217D8
:1010F000B307E407F50720F0A21BB30BE40BF50BD5
:10110000661F771F881F991F1A9469F7609570955D
:10111000809590959B01AC01BD01CF010895DC0144
:10112000CB01FC01E199FECF06C0FFBBEEBBE09A0C
:1011300031960DB20D9241505040B8F70895DC0140
:10114000A40FB51F4150504040F0CB01840F951FB4
:101150002E9105D041505040D8F70895262FE1999F
:10116000FECF9FBB8EBBE09A01970DB2021639F0FD
:101170001CBA2DBB0FB6F894E29AE19A0FBE0895FF
:10118000F894FFCFF6C8B8C8FAC8FCC8FEC800C9B2
:1011900002C904C900C9B0C804C906C908C90BC935
:1011A0000CC90DC95DCD67CD77CD88CD87CD86CDF6
:1011B00085CD99CDA9CDAECDB8CDC3CDD4CDD8CD2B
:1011C000D0CDD8CDCECDF6CDCCCDCBCDCACDC9CD21
:0E11D000C8CD09CE08CEC5CDC4CDD6CDD5CD67
:1011DE00332201353031303130303030063F0000AF
:1011EE000106030100000101010310632100B70B8A
:1011FE00332A00313F80200100310000200000061C
:10120E004B00000006470000000642000000060EDC
:06121E0001000030000099
:00000001FF
